{
	"Assets/Owner.sol": {
		"Owner": {
			"abi": [
				{
					"inputs": [],
					"stateMutability": "nonpayable",
					"type": "constructor"
				},
				{
					"inputs": [],
					"name": "auctionState",
					"outputs": [
						{
							"internalType": "enum Owner.State",
							"name": "",
							"type": "uint8"
						}
					],
					"stateMutability": "view",
					"type": "function"
				},
				{
					"inputs": [
						{
							"internalType": "address",
							"name": "",
							"type": "address"
						}
					],
					"name": "bids",
					"outputs": [
						{
							"internalType": "uint256",
							"name": "",
							"type": "uint256"
						}
					],
					"stateMutability": "view",
					"type": "function"
				},
				{
					"inputs": [],
					"name": "cancelAuction",
					"outputs": [],
					"stateMutability": "nonpayable",
					"type": "function"
				},
				{
					"inputs": [],
					"name": "endBlock",
					"outputs": [
						{
							"internalType": "uint256",
							"name": "",
							"type": "uint256"
						}
					],
					"stateMutability": "view",
					"type": "function"
				},
				{
					"inputs": [],
					"name": "finalizeAuction",
					"outputs": [],
					"stateMutability": "nonpayable",
					"type": "function"
				},
				{
					"inputs": [],
					"name": "highestBidder",
					"outputs": [
						{
							"internalType": "address payable",
							"name": "",
							"type": "address"
						}
					],
					"stateMutability": "view",
					"type": "function"
				},
				{
					"inputs": [],
					"name": "highestBindingBid",
					"outputs": [
						{
							"internalType": "uint256",
							"name": "",
							"type": "uint256"
						}
					],
					"stateMutability": "view",
					"type": "function"
				},
				{
					"inputs": [],
					"name": "ipfaHash",
					"outputs": [
						{
							"internalType": "string",
							"name": "",
							"type": "string"
						}
					],
					"stateMutability": "view",
					"type": "function"
				},
				{
					"inputs": [],
					"name": "owner",
					"outputs": [
						{
							"internalType": "address payable",
							"name": "",
							"type": "address"
						}
					],
					"stateMutability": "view",
					"type": "function"
				},
				{
					"inputs": [],
					"name": "ownerFinalized",
					"outputs": [
						{
							"internalType": "bool",
							"name": "",
							"type": "bool"
						}
					],
					"stateMutability": "view",
					"type": "function"
				},
				{
					"inputs": [],
					"name": "placeBid",
					"outputs": [
						{
							"internalType": "bool",
							"name": "",
							"type": "bool"
						}
					],
					"stateMutability": "payable",
					"type": "function"
				},
				{
					"inputs": [],
					"name": "startBlock",
					"outputs": [
						{
							"internalType": "uint256",
							"name": "",
							"type": "uint256"
						}
					],
					"stateMutability": "view",
					"type": "function"
				}
			],
			"devdoc": {
				"kind": "dev",
				"methods": {},
				"version": 1
			},
			"evm": {
				"assembly": "    /* \"Assets/Owner.sol\":27:3332  contract Owner{... */\n  mstore(0x40, 0x80)\n    /* \"Assets/Owner.sol\":622:627  false */\n  0x00\n    /* \"Assets/Owner.sol\":593:627  bool public ownerFinalized = false */\n  0x09\n  exp(0x0100, 0x00)\n  dup2\n  sload\n  dup2\n  0xff\n  mul\n  not\n  and\n  swap1\n  dup4\n  iszero\n  iszero\n  mul\n  or\n  swap1\n  sstore\n  pop\n    /* \"Assets/Owner.sol\":636:876  constructor() {... */\n  callvalue\n  dup1\n  iszero\n  tag_1\n  jumpi\n  0x00\n  dup1\n  revert\ntag_1:\n  pop\n    /* \"Assets/Owner.sol\":677:687  msg.sender */\n  caller\n    /* \"Assets/Owner.sol\":661:666  owner */\n  0x00\n  dup1\n    /* \"Assets/Owner.sol\":661:688  owner = payable(msg.sender) */\n  0x0100\n  exp\n  dup2\n  sload\n  dup2\n  0xffffffffffffffffffffffffffffffffffffffff\n  mul\n  not\n  and\n  swap1\n  dup4\n  0xffffffffffffffffffffffffffffffffffffffff\n  and\n  mul\n  or\n  swap1\n  sstore\n  pop\n    /* \"Assets/Owner.sol\":714:727  State.Running */\n  0x01\n    /* \"Assets/Owner.sol\":699:711  auctionState */\n  0x04\n  0x00\n    /* \"Assets/Owner.sol\":699:727  auctionState = State.Running */\n  0x0100\n  exp\n  dup2\n  sload\n  dup2\n  0xff\n  mul\n  not\n  and\n  swap1\n  dup4\n  0x03\n  dup2\n  gt\n  iszero\n  tag_4\n  jumpi\n  tag_5\n  tag_6\n  jump\t// in\ntag_5:\ntag_4:\n  mul\n  or\n  swap1\n  sstore\n  pop\n    /* \"Assets/Owner.sol\":751:763  block.number */\n  number\n    /* \"Assets/Owner.sol\":738:748  startBlock */\n  0x01\n    /* \"Assets/Owner.sol\":738:763  startBlock = block.number */\n  dup2\n  swap1\n  sstore\n  pop\n    /* \"Assets/Owner.sol\":798:799  3 */\n  0x03\n    /* \"Assets/Owner.sol\":785:795  startBlock */\n  sload(0x01)\n    /* \"Assets/Owner.sol\":785:799  startBlock + 3 */\n  tag_7\n  swap2\n  swap1\n  tag_8\n  jump\t// in\ntag_7:\n    /* \"Assets/Owner.sol\":774:782  endBlock */\n  0x02\n    /* \"Assets/Owner.sol\":774:799  endBlock = startBlock + 3 */\n  dup2\n  swap1\n  sstore\n  pop\n    /* \"Assets/Owner.sol\":810:823  ipfaHash = \"\" */\n  mload(0x40)\n  dup1\n  0x20\n  add\n  0x40\n  mstore\n  dup1\n  0x00\n  dup2\n  mstore\n  pop\n    /* \"Assets/Owner.sol\":810:818  ipfaHash */\n  0x03\n    /* \"Assets/Owner.sol\":810:823  ipfaHash = \"\" */\n  swap1\n  dup2\n  tag_9\n  swap2\n  swap1\n  tag_10\n  jump\t// in\ntag_9:\n  pop\n    /* \"Assets/Owner.sol\":849:868  1000000000000000000 */\n  0x0de0b6b3a7640000\n    /* \"Assets/Owner.sol\":834:846  bidIncrement */\n  0x08\n    /* \"Assets/Owner.sol\":834:868  bidIncrement = 1000000000000000000 */\n  dup2\n  swap1\n  sstore\n  pop\n    /* \"Assets/Owner.sol\":27:3332  contract Owner{... */\n  jump(tag_11)\n    /* \"#utility.yul\":7:187   */\ntag_6:\n    /* \"#utility.yul\":55:132   */\n  0x4e487b7100000000000000000000000000000000000000000000000000000000\n    /* \"#utility.yul\":52:53   */\n  0x00\n    /* \"#utility.yul\":45:133   */\n  mstore\n    /* \"#utility.yul\":152:156   */\n  0x21\n    /* \"#utility.yul\":149:150   */\n  0x04\n    /* \"#utility.yul\":142:157   */\n  mstore\n    /* \"#utility.yul\":176:180   */\n  0x24\n    /* \"#utility.yul\":173:174   */\n  0x00\n    /* \"#utility.yul\":166:181   */\n  revert\n    /* \"#utility.yul\":193:270   */\ntag_12:\n    /* \"#utility.yul\":230:237   */\n  0x00\n    /* \"#utility.yul\":259:264   */\n  dup2\n    /* \"#utility.yul\":248:264   */\n  swap1\n  pop\n    /* \"#utility.yul\":193:270   */\n  swap2\n  swap1\n  pop\n  jump\t// out\n    /* \"#utility.yul\":276:456   */\ntag_13:\n    /* \"#utility.yul\":324:401   */\n  0x4e487b7100000000000000000000000000000000000000000000000000000000\n    /* \"#utility.yul\":321:322   */\n  0x00\n    /* \"#utility.yul\":314:402   */\n  mstore\n    /* \"#utility.yul\":421:425   */\n  0x11\n    /* \"#utility.yul\":418:419   */\n  0x04\n    /* \"#utility.yul\":411:426   */\n  mstore\n    /* \"#utility.yul\":445:449   */\n  0x24\n    /* \"#utility.yul\":442:443   */\n  0x00\n    /* \"#utility.yul\":435:450   */\n  revert\n    /* \"#utility.yul\":462:653   */\ntag_8:\n    /* \"#utility.yul\":502:505   */\n  0x00\n    /* \"#utility.yul\":521:541   */\n  tag_38\n    /* \"#utility.yul\":539:540   */\n  dup3\n    /* \"#utility.yul\":521:541   */\n  tag_12\n  jump\t// in\ntag_38:\n    /* \"#utility.yul\":516:541   */\n  swap2\n  pop\n    /* \"#utility.yul\":555:575   */\n  tag_39\n    /* \"#utility.yul\":573:574   */\n  dup4\n    /* \"#utility.yul\":555:575   */\n  tag_12\n  jump\t// in\ntag_39:\n    /* \"#utility.yul\":550:575   */\n  swap3\n  pop\n    /* \"#utility.yul\":598:599   */\n  dup3\n    /* \"#utility.yul\":595:596   */\n  dup3\n    /* \"#utility.yul\":591:600   */\n  add\n    /* \"#utility.yul\":584:600   */\n  swap1\n  pop\n    /* \"#utility.yul\":619:622   */\n  dup1\n    /* \"#utility.yul\":616:617   */\n  dup3\n    /* \"#utility.yul\":613:623   */\n  gt\n    /* \"#utility.yul\":610:646   */\n  iszero\n  tag_40\n  jumpi\n    /* \"#utility.yul\":626:644   */\n  tag_41\n  tag_13\n  jump\t// in\ntag_41:\n    /* \"#utility.yul\":610:646   */\ntag_40:\n    /* \"#utility.yul\":462:653   */\n  swap3\n  swap2\n  pop\n  pop\n  jump\t// out\n    /* \"#utility.yul\":659:758   */\ntag_14:\n    /* \"#utility.yul\":711:717   */\n  0x00\n    /* \"#utility.yul\":745:750   */\n  dup2\n    /* \"#utility.yul\":739:751   */\n  mload\n    /* \"#utility.yul\":729:751   */\n  swap1\n  pop\n    /* \"#utility.yul\":659:758   */\n  swap2\n  swap1\n  pop\n  jump\t// out\n    /* \"#utility.yul\":764:944   */\ntag_15:\n    /* \"#utility.yul\":812:889   */\n  0x4e487b7100000000000000000000000000000000000000000000000000000000\n    /* \"#utility.yul\":809:810   */\n  0x00\n    /* \"#utility.yul\":802:890   */\n  mstore\n    /* \"#utility.yul\":909:913   */\n  0x41\n    /* \"#utility.yul\":906:907   */\n  0x04\n    /* \"#utility.yul\":899:914   */\n  mstore\n    /* \"#utility.yul\":933:937   */\n  0x24\n    /* \"#utility.yul\":930:931   */\n  0x00\n    /* \"#utility.yul\":923:938   */\n  revert\n    /* \"#utility.yul\":950:1130   */\ntag_16:\n    /* \"#utility.yul\":998:1075   */\n  0x4e487b7100000000000000000000000000000000000000000000000000000000\n    /* \"#utility.yul\":995:996   */\n  0x00\n    /* \"#utility.yul\":988:1076   */\n  mstore\n    /* \"#utility.yul\":1095:1099   */\n  0x22\n    /* \"#utility.yul\":1092:1093   */\n  0x04\n    /* \"#utility.yul\":1085:1100   */\n  mstore\n    /* \"#utility.yul\":1119:1123   */\n  0x24\n    /* \"#utility.yul\":1116:1117   */\n  0x00\n    /* \"#utility.yul\":1109:1124   */\n  revert\n    /* \"#utility.yul\":1136:1456   */\ntag_17:\n    /* \"#utility.yul\":1180:1186   */\n  0x00\n    /* \"#utility.yul\":1217:1218   */\n  0x02\n    /* \"#utility.yul\":1211:1215   */\n  dup3\n    /* \"#utility.yul\":1207:1219   */\n  div\n    /* \"#utility.yul\":1197:1219   */\n  swap1\n  pop\n    /* \"#utility.yul\":1264:1265   */\n  0x01\n    /* \"#utility.yul\":1258:1262   */\n  dup3\n    /* \"#utility.yul\":1254:1266   */\n  and\n    /* \"#utility.yul\":1285:1303   */\n  dup1\n    /* \"#utility.yul\":1275:1356   */\n  tag_46\n  jumpi\n    /* \"#utility.yul\":1341:1345   */\n  0x7f\n    /* \"#utility.yul\":1333:1339   */\n  dup3\n    /* \"#utility.yul\":1329:1346   */\n  and\n    /* \"#utility.yul\":1319:1346   */\n  swap2\n  pop\n    /* \"#utility.yul\":1275:1356   */\ntag_46:\n    /* \"#utility.yul\":1403:1405   */\n  0x20\n    /* \"#utility.yul\":1395:1401   */\n  dup3\n    /* \"#utility.yul\":1392:1406   */\n  lt\n    /* \"#utility.yul\":1372:1390   */\n  dup2\n    /* \"#utility.yul\":1369:1407   */\n  sub\n    /* \"#utility.yul\":1366:1450   */\n  tag_47\n  jumpi\n    /* \"#utility.yul\":1422:1440   */\n  tag_48\n  tag_16\n  jump\t// in\ntag_48:\n    /* \"#utility.yul\":1366:1450   */\ntag_47:\n    /* \"#utility.yul\":1187:1456   */\n  pop\n    /* \"#utility.yul\":1136:1456   */\n  swap2\n  swap1\n  pop\n  jump\t// out\n    /* \"#utility.yul\":1462:1603   */\ntag_18:\n    /* \"#utility.yul\":1511:1515   */\n  0x00\n    /* \"#utility.yul\":1534:1537   */\n  dup2\n    /* \"#utility.yul\":1526:1537   */\n  swap1\n  pop\n    /* \"#utility.yul\":1557:1560   */\n  dup2\n    /* \"#utility.yul\":1554:1555   */\n  0x00\n    /* \"#utility.yul\":1547:1561   */\n  mstore\n    /* \"#utility.yul\":1591:1595   */\n  0x20\n    /* \"#utility.yul\":1588:1589   */\n  0x00\n    /* \"#utility.yul\":1578:1596   */\n  keccak256\n    /* \"#utility.yul\":1570:1596   */\n  swap1\n  pop\n    /* \"#utility.yul\":1462:1603   */\n  swap2\n  swap1\n  pop\n  jump\t// out\n    /* \"#utility.yul\":1609:1702   */\ntag_19:\n    /* \"#utility.yul\":1646:1652   */\n  0x00\n    /* \"#utility.yul\":1693:1695   */\n  0x20\n    /* \"#utility.yul\":1688:1690   */\n  0x1f\n    /* \"#utility.yul\":1681:1686   */\n  dup4\n    /* \"#utility.yul\":1677:1691   */\n  add\n    /* \"#utility.yul\":1673:1696   */\n  div\n    /* \"#utility.yul\":1663:1696   */\n  swap1\n  pop\n    /* \"#utility.yul\":1609:1702   */\n  swap2\n  swap1\n  pop\n  jump\t// out\n    /* \"#utility.yul\":1708:1815   */\ntag_20:\n    /* \"#utility.yul\":1752:1760   */\n  0x00\n    /* \"#utility.yul\":1802:1807   */\n  dup3\n    /* \"#utility.yul\":1796:1800   */\n  dup3\n    /* \"#utility.yul\":1792:1808   */\n  shl\n    /* \"#utility.yul\":1771:1808   */\n  swap1\n  pop\n    /* \"#utility.yul\":1708:1815   */\n  swap3\n  swap2\n  pop\n  pop\n  jump\t// out\n    /* \"#utility.yul\":1821:2214   */\ntag_21:\n    /* \"#utility.yul\":1890:1896   */\n  0x00\n    /* \"#utility.yul\":1940:1941   */\n  0x08\n    /* \"#utility.yul\":1928:1938   */\n  dup4\n    /* \"#utility.yul\":1924:1942   */\n  mul\n    /* \"#utility.yul\":1963:2060   */\n  tag_53\n    /* \"#utility.yul\":1993:2059   */\n  0xffffffffffffffffffffffffffffffffffffffffffffffffffffffffffffffff\n    /* \"#utility.yul\":1982:1991   */\n  dup3\n    /* \"#utility.yul\":1963:2060   */\n  tag_20\n  jump\t// in\ntag_53:\n    /* \"#utility.yul\":2081:2120   */\n  tag_54\n    /* \"#utility.yul\":2111:2119   */\n  dup7\n    /* \"#utility.yul\":2100:2109   */\n  dup4\n    /* \"#utility.yul\":2081:2120   */\n  tag_20\n  jump\t// in\ntag_54:\n    /* \"#utility.yul\":2069:2120   */\n  swap6\n  pop\n    /* \"#utility.yul\":2153:2157   */\n  dup1\n    /* \"#utility.yul\":2149:2158   */\n  not\n    /* \"#utility.yul\":2142:2147   */\n  dup5\n    /* \"#utility.yul\":2138:2159   */\n  and\n    /* \"#utility.yul\":2129:2159   */\n  swap4\n  pop\n    /* \"#utility.yul\":2202:2206   */\n  dup1\n    /* \"#utility.yul\":2192:2200   */\n  dup7\n    /* \"#utility.yul\":2188:2207   */\n  and\n    /* \"#utility.yul\":2181:2186   */\n  dup5\n    /* \"#utility.yul\":2178:2208   */\n  or\n    /* \"#utility.yul\":2168:2208   */\n  swap3\n  pop\n    /* \"#utility.yul\":1897:2214   */\n  pop\n  pop\n    /* \"#utility.yul\":1821:2214   */\n  swap4\n  swap3\n  pop\n  pop\n  pop\n  jump\t// out\n    /* \"#utility.yul\":2220:2280   */\ntag_22:\n    /* \"#utility.yul\":2248:2251   */\n  0x00\n    /* \"#utility.yul\":2269:2274   */\n  dup2\n    /* \"#utility.yul\":2262:2274   */\n  swap1\n  pop\n    /* \"#utility.yul\":2220:2280   */\n  swap2\n  swap1\n  pop\n  jump\t// out\n    /* \"#utility.yul\":2286:2428   */\ntag_23:\n    /* \"#utility.yul\":2336:2345   */\n  0x00\n    /* \"#utility.yul\":2369:2422   */\n  tag_57\n    /* \"#utility.yul\":2387:2421   */\n  tag_58\n    /* \"#utility.yul\":2396:2420   */\n  tag_59\n    /* \"#utility.yul\":2414:2419   */\n  dup5\n    /* \"#utility.yul\":2396:2420   */\n  tag_12\n  jump\t// in\ntag_59:\n    /* \"#utility.yul\":2387:2421   */\n  tag_22\n  jump\t// in\ntag_58:\n    /* \"#utility.yul\":2369:2422   */\n  tag_12\n  jump\t// in\ntag_57:\n    /* \"#utility.yul\":2356:2422   */\n  swap1\n  pop\n    /* \"#utility.yul\":2286:2428   */\n  swap2\n  swap1\n  pop\n  jump\t// out\n    /* \"#utility.yul\":2434:2509   */\ntag_24:\n    /* \"#utility.yul\":2477:2480   */\n  0x00\n    /* \"#utility.yul\":2498:2503   */\n  dup2\n    /* \"#utility.yul\":2491:2503   */\n  swap1\n  pop\n    /* \"#utility.yul\":2434:2509   */\n  swap2\n  swap1\n  pop\n  jump\t// out\n    /* \"#utility.yul\":2515:2784   */\ntag_25:\n    /* \"#utility.yul\":2625:2664   */\n  tag_62\n    /* \"#utility.yul\":2656:2663   */\n  dup4\n    /* \"#utility.yul\":2625:2664   */\n  tag_23\n  jump\t// in\ntag_62:\n    /* \"#utility.yul\":2686:2777   */\n  tag_63\n    /* \"#utility.yul\":2735:2776   */\n  tag_64\n    /* \"#utility.yul\":2759:2775   */\n  dup3\n    /* \"#utility.yul\":2735:2776   */\n  tag_24\n  jump\t// in\ntag_64:\n    /* \"#utility.yul\":2727:2733   */\n  dup5\n    /* \"#utility.yul\":2720:2724   */\n  dup5\n    /* \"#utility.yul\":2714:2725   */\n  sload\n    /* \"#utility.yul\":2686:2777   */\n  tag_21\n  jump\t// in\ntag_63:\n    /* \"#utility.yul\":2680:2684   */\n  dup3\n    /* \"#utility.yul\":2673:2778   */\n  sstore\n    /* \"#utility.yul\":2591:2784   */\n  pop\n    /* \"#utility.yul\":2515:2784   */\n  pop\n  pop\n  pop\n  jump\t// out\n    /* \"#utility.yul\":2790:2863   */\ntag_26:\n    /* \"#utility.yul\":2835:2838   */\n  0x00\n    /* \"#utility.yul\":2790:2863   */\n  swap1\n  jump\t// out\n    /* \"#utility.yul\":2869:3058   */\ntag_27:\n    /* \"#utility.yul\":2946:2978   */\n  tag_67\n  tag_26\n  jump\t// in\ntag_67:\n    /* \"#utility.yul\":2987:3052   */\n  tag_68\n    /* \"#utility.yul\":3045:3051   */\n  dup2\n    /* \"#utility.yul\":3037:3043   */\n  dup5\n    /* \"#utility.yul\":3031:3035   */\n  dup5\n    /* \"#utility.yul\":2987:3052   */\n  tag_25\n  jump\t// in\ntag_68:\n    /* \"#utility.yul\":2922:3058   */\n  pop\n    /* \"#utility.yul\":2869:3058   */\n  pop\n  pop\n  jump\t// out\n    /* \"#utility.yul\":3064:3250   */\ntag_28:\n    /* \"#utility.yul\":3124:3244   */\ntag_70:\n    /* \"#utility.yul\":3141:3144   */\n  dup2\n    /* \"#utility.yul\":3134:3139   */\n  dup2\n    /* \"#utility.yul\":3131:3145   */\n  lt\n    /* \"#utility.yul\":3124:3244   */\n  iszero\n  tag_72\n  jumpi\n    /* \"#utility.yul\":3195:3234   */\n  tag_73\n    /* \"#utility.yul\":3232:3233   */\n  0x00\n    /* \"#utility.yul\":3225:3230   */\n  dup3\n    /* \"#utility.yul\":3195:3234   */\n  tag_27\n  jump\t// in\ntag_73:\n    /* \"#utility.yul\":3168:3169   */\n  0x01\n    /* \"#utility.yul\":3161:3166   */\n  dup2\n    /* \"#utility.yul\":3157:3170   */\n  add\n    /* \"#utility.yul\":3148:3170   */\n  swap1\n  pop\n    /* \"#utility.yul\":3124:3244   */\n  jump(tag_70)\ntag_72:\n    /* \"#utility.yul\":3064:3250   */\n  pop\n  pop\n  jump\t// out\n    /* \"#utility.yul\":3256:3799   */\ntag_29:\n    /* \"#utility.yul\":3357:3359   */\n  0x1f\n    /* \"#utility.yul\":3352:3355   */\n  dup3\n    /* \"#utility.yul\":3349:3360   */\n  gt\n    /* \"#utility.yul\":3346:3792   */\n  iszero\n  tag_75\n  jumpi\n    /* \"#utility.yul\":3391:3429   */\n  tag_76\n    /* \"#utility.yul\":3423:3428   */\n  dup2\n    /* \"#utility.yul\":3391:3429   */\n  tag_18\n  jump\t// in\ntag_76:\n    /* \"#utility.yul\":3475:3504   */\n  tag_77\n    /* \"#utility.yul\":3493:3503   */\n  dup5\n    /* \"#utility.yul\":3475:3504   */\n  tag_19\n  jump\t// in\ntag_77:\n    /* \"#utility.yul\":3465:3473   */\n  dup2\n    /* \"#utility.yul\":3461:3505   */\n  add\n    /* \"#utility.yul\":3658:3660   */\n  0x20\n    /* \"#utility.yul\":3646:3656   */\n  dup6\n    /* \"#utility.yul\":3643:3661   */\n  lt\n    /* \"#utility.yul\":3640:3689   */\n  iszero\n  tag_78\n  jumpi\n    /* \"#utility.yul\":3679:3687   */\n  dup2\n    /* \"#utility.yul\":3664:3687   */\n  swap1\n  pop\n    /* \"#utility.yul\":3640:3689   */\ntag_78:\n    /* \"#utility.yul\":3702:3782   */\n  tag_79\n    /* \"#utility.yul\":3758:3780   */\n  tag_80\n    /* \"#utility.yul\":3776:3779   */\n  dup6\n    /* \"#utility.yul\":3758:3780   */\n  tag_19\n  jump\t// in\ntag_80:\n    /* \"#utility.yul\":3748:3756   */\n  dup4\n    /* \"#utility.yul\":3744:3781   */\n  add\n    /* \"#utility.yul\":3731:3742   */\n  dup3\n    /* \"#utility.yul\":3702:3782   */\n  tag_28\n  jump\t// in\ntag_79:\n    /* \"#utility.yul\":3361:3792   */\n  pop\n  pop\n    /* \"#utility.yul\":3346:3792   */\ntag_75:\n    /* \"#utility.yul\":3256:3799   */\n  pop\n  pop\n  pop\n  jump\t// out\n    /* \"#utility.yul\":3805:3922   */\ntag_30:\n    /* \"#utility.yul\":3859:3867   */\n  0x00\n    /* \"#utility.yul\":3909:3914   */\n  dup3\n    /* \"#utility.yul\":3903:3907   */\n  dup3\n    /* \"#utility.yul\":3899:3915   */\n  shr\n    /* \"#utility.yul\":3878:3915   */\n  swap1\n  pop\n    /* \"#utility.yul\":3805:3922   */\n  swap3\n  swap2\n  pop\n  pop\n  jump\t// out\n    /* \"#utility.yul\":3928:4097   */\ntag_31:\n    /* \"#utility.yul\":3972:3978   */\n  0x00\n    /* \"#utility.yul\":4005:4056   */\n  tag_83\n    /* \"#utility.yul\":4053:4054   */\n  0x00\n    /* \"#utility.yul\":4049:4055   */\n  not\n    /* \"#utility.yul\":4041:4046   */\n  dup5\n    /* \"#utility.yul\":4038:4039   */\n  0x08\n    /* \"#utility.yul\":4034:4047   */\n  mul\n    /* \"#utility.yul\":4005:4056   */\n  tag_30\n  jump\t// in\ntag_83:\n    /* \"#utility.yul\":4001:4057   */\n  not\n    /* \"#utility.yul\":4086:4090   */\n  dup1\n    /* \"#utility.yul\":4080:4084   */\n  dup4\n    /* \"#utility.yul\":4076:4091   */\n  and\n    /* \"#utility.yul\":4066:4091   */\n  swap2\n  pop\n    /* \"#utility.yul\":3979:4097   */\n  pop\n    /* \"#utility.yul\":3928:4097   */\n  swap3\n  swap2\n  pop\n  pop\n  jump\t// out\n    /* \"#utility.yul\":4102:4397   */\ntag_32:\n    /* \"#utility.yul\":4178:4182   */\n  0x00\n    /* \"#utility.yul\":4324:4353   */\n  tag_85\n    /* \"#utility.yul\":4349:4352   */\n  dup4\n    /* \"#utility.yul\":4343:4347   */\n  dup4\n    /* \"#utility.yul\":4324:4353   */\n  tag_31\n  jump\t// in\ntag_85:\n    /* \"#utility.yul\":4316:4353   */\n  swap2\n  pop\n    /* \"#utility.yul\":4386:4389   */\n  dup3\n    /* \"#utility.yul\":4383:4384   */\n  0x02\n    /* \"#utility.yul\":4379:4390   */\n  mul\n    /* \"#utility.yul\":4373:4377   */\n  dup3\n    /* \"#utility.yul\":4370:4391   */\n  or\n    /* \"#utility.yul\":4362:4391   */\n  swap1\n  pop\n    /* \"#utility.yul\":4102:4397   */\n  swap3\n  swap2\n  pop\n  pop\n  jump\t// out\n    /* \"#utility.yul\":4402:5797   */\ntag_10:\n    /* \"#utility.yul\":4519:4556   */\n  tag_87\n    /* \"#utility.yul\":4552:4555   */\n  dup3\n    /* \"#utility.yul\":4519:4556   */\n  tag_14\n  jump\t// in\ntag_87:\n    /* \"#utility.yul\":4621:4639   */\n  0xffffffffffffffff\n    /* \"#utility.yul\":4613:4619   */\n  dup2\n    /* \"#utility.yul\":4610:4640   */\n  gt\n    /* \"#utility.yul\":4607:4663   */\n  iszero\n  tag_88\n  jumpi\n    /* \"#utility.yul\":4643:4661   */\n  tag_89\n  tag_15\n  jump\t// in\ntag_89:\n    /* \"#utility.yul\":4607:4663   */\ntag_88:\n    /* \"#utility.yul\":4687:4725   */\n  tag_90\n    /* \"#utility.yul\":4719:4723   */\n  dup3\n    /* \"#utility.yul\":4713:4724   */\n  sload\n    /* \"#utility.yul\":4687:4725   */\n  tag_17\n  jump\t// in\ntag_90:\n    /* \"#utility.yul\":4772:4839   */\n  tag_91\n    /* \"#utility.yul\":4832:4838   */\n  dup3\n    /* \"#utility.yul\":4824:4830   */\n  dup3\n    /* \"#utility.yul\":4818:4822   */\n  dup6\n    /* \"#utility.yul\":4772:4839   */\n  tag_29\n  jump\t// in\ntag_91:\n    /* \"#utility.yul\":4866:4867   */\n  0x00\n    /* \"#utility.yul\":4890:4894   */\n  0x20\n    /* \"#utility.yul\":4877:4894   */\n  swap1\n  pop\n    /* \"#utility.yul\":4922:4924   */\n  0x1f\n    /* \"#utility.yul\":4914:4920   */\n  dup4\n    /* \"#utility.yul\":4911:4925   */\n  gt\n    /* \"#utility.yul\":4939:4940   */\n  0x01\n    /* \"#utility.yul\":4934:5552   */\n  dup2\n  eq\n  tag_93\n  jumpi\n    /* \"#utility.yul\":5596:5597   */\n  0x00\n    /* \"#utility.yul\":5613:5619   */\n  dup5\n    /* \"#utility.yul\":5610:5687   */\n  iszero\n  tag_94\n  jumpi\n    /* \"#utility.yul\":5662:5671   */\n  dup3\n    /* \"#utility.yul\":5657:5660   */\n  dup8\n    /* \"#utility.yul\":5653:5672   */\n  add\n    /* \"#utility.yul\":5647:5673   */\n  mload\n    /* \"#utility.yul\":5638:5673   */\n  swap1\n  pop\n    /* \"#utility.yul\":5610:5687   */\ntag_94:\n    /* \"#utility.yul\":5713:5780   */\n  tag_95\n    /* \"#utility.yul\":5773:5779   */\n  dup6\n    /* \"#utility.yul\":5766:5771   */\n  dup3\n    /* \"#utility.yul\":5713:5780   */\n  tag_32\n  jump\t// in\ntag_95:\n    /* \"#utility.yul\":5707:5711   */\n  dup7\n    /* \"#utility.yul\":5700:5781   */\n  sstore\n    /* \"#utility.yul\":5569:5791   */\n  pop\n    /* \"#utility.yul\":4904:5791   */\n  jump(tag_92)\n    /* \"#utility.yul\":4934:5552   */\ntag_93:\n    /* \"#utility.yul\":4986:4990   */\n  0x1f\n    /* \"#utility.yul\":4982:4991   */\n  not\n    /* \"#utility.yul\":4974:4980   */\n  dup5\n    /* \"#utility.yul\":4970:4992   */\n  and\n    /* \"#utility.yul\":5020:5057   */\n  tag_96\n    /* \"#utility.yul\":5052:5056   */\n  dup7\n    /* \"#utility.yul\":5020:5057   */\n  tag_18\n  jump\t// in\ntag_96:\n    /* \"#utility.yul\":5079:5080   */\n  0x00\n    /* \"#utility.yul\":5093:5301   */\ntag_97:\n    /* \"#utility.yul\":5107:5114   */\n  dup3\n    /* \"#utility.yul\":5104:5105   */\n  dup2\n    /* \"#utility.yul\":5101:5115   */\n  lt\n    /* \"#utility.yul\":5093:5301   */\n  iszero\n  tag_99\n  jumpi\n    /* \"#utility.yul\":5186:5195   */\n  dup5\n    /* \"#utility.yul\":5181:5184   */\n  dup10\n    /* \"#utility.yul\":5177:5196   */\n  add\n    /* \"#utility.yul\":5171:5197   */\n  mload\n    /* \"#utility.yul\":5163:5169   */\n  dup3\n    /* \"#utility.yul\":5156:5198   */\n  sstore\n    /* \"#utility.yul\":5237:5238   */\n  0x01\n    /* \"#utility.yul\":5229:5235   */\n  dup3\n    /* \"#utility.yul\":5225:5239   */\n  add\n    /* \"#utility.yul\":5215:5239   */\n  swap2\n  pop\n    /* \"#utility.yul\":5284:5286   */\n  0x20\n    /* \"#utility.yul\":5273:5282   */\n  dup6\n    /* \"#utility.yul\":5269:5287   */\n  add\n    /* \"#utility.yul\":5256:5287   */\n  swap5\n  pop\n    /* \"#utility.yul\":5130:5134   */\n  0x20\n    /* \"#utility.yul\":5127:5128   */\n  dup2\n    /* \"#utility.yul\":5123:5135   */\n  add\n    /* \"#utility.yul\":5118:5135   */\n  swap1\n  pop\n    /* \"#utility.yul\":5093:5301   */\n  jump(tag_97)\ntag_99:\n    /* \"#utility.yul\":5329:5335   */\n  dup7\n    /* \"#utility.yul\":5320:5327   */\n  dup4\n    /* \"#utility.yul\":5317:5336   */\n  lt\n    /* \"#utility.yul\":5314:5493   */\n  iszero\n  tag_100\n  jumpi\n    /* \"#utility.yul\":5387:5396   */\n  dup5\n    /* \"#utility.yul\":5382:5385   */\n  dup10\n    /* \"#utility.yul\":5378:5397   */\n  add\n    /* \"#utility.yul\":5372:5398   */\n  mload\n    /* \"#utility.yul\":5430:5478   */\n  tag_101\n    /* \"#utility.yul\":5472:5476   */\n  0x1f\n    /* \"#utility.yul\":5464:5470   */\n  dup10\n    /* \"#utility.yul\":5460:5477   */\n  and\n    /* \"#utility.yul\":5449:5458   */\n  dup3\n    /* \"#utility.yul\":5430:5478   */\n  tag_31\n  jump\t// in\ntag_101:\n    /* \"#utility.yul\":5422:5428   */\n  dup4\n    /* \"#utility.yul\":5415:5479   */\n  sstore\n    /* \"#utility.yul\":5337:5493   */\n  pop\n    /* \"#utility.yul\":5314:5493   */\ntag_100:\n    /* \"#utility.yul\":5539:5540   */\n  0x01\n    /* \"#utility.yul\":5535:5536   */\n  0x02\n    /* \"#utility.yul\":5527:5533   */\n  dup9\n    /* \"#utility.yul\":5523:5537   */\n  mul\n    /* \"#utility.yul\":5519:5541   */\n  add\n    /* \"#utility.yul\":5513:5517   */\n  dup9\n    /* \"#utility.yul\":5506:5542   */\n  sstore\n    /* \"#utility.yul\":4941:5552   */\n  pop\n  pop\n  pop\n    /* \"#utility.yul\":4904:5791   */\ntag_92:\n  pop\n    /* \"#utility.yul\":4494:5797   */\n  pop\n  pop\n  pop\n    /* \"#utility.yul\":4402:5797   */\n  pop\n  pop\n  jump\t// out\n    /* \"Assets/Owner.sol\":27:3332  contract Owner{... */\ntag_11:\n  dataSize(sub_0)\n  dup1\n  dataOffset(sub_0)\n  0x00\n  codecopy\n  0x00\n  return\nstop\n\nsub_0: assembly {\n        /* \"Assets/Owner.sol\":27:3332  contract Owner{... */\n      mstore(0x40, 0x80)\n      jumpi(tag_1, lt(calldatasize, 0x04))\n      shr(0xe0, calldataload(0x00))\n      dup1\n      0x8fa8b790\n      gt\n      tag_14\n      jumpi\n      dup1\n      0x8fa8b790\n      eq\n      tag_8\n      jumpi\n      dup1\n      0x91f90157\n      eq\n      tag_9\n      jumpi\n      dup1\n      0xecfc7ecc\n      eq\n      tag_10\n      jumpi\n      dup1\n      0xf5b56c56\n      eq\n      tag_11\n      jumpi\n      dup1\n      0xf75781a4\n      eq\n      tag_12\n      jumpi\n      dup1\n      0xf77282ab\n      eq\n      tag_13\n      jumpi\n      jump(tag_1)\n    tag_14:\n      dup1\n      0x083c6323\n      eq\n      tag_2\n      jumpi\n      dup1\n      0x48cd4cb1\n      eq\n      tag_3\n      jumpi\n      dup1\n      0x62ea82db\n      eq\n      tag_4\n      jumpi\n      dup1\n      0x7fb45099\n      eq\n      tag_5\n      jumpi\n      dup1\n      0x8b7b097f\n      eq\n      tag_6\n      jumpi\n      dup1\n      0x8da5cb5b\n      eq\n      tag_7\n      jumpi\n    tag_1:\n      0x00\n      dup1\n      revert\n        /* \"Assets/Owner.sol\":210:230  uint public endBlock */\n    tag_2:\n      callvalue\n      dup1\n      iszero\n      tag_15\n      jumpi\n      0x00\n      dup1\n      revert\n    tag_15:\n      pop\n      tag_16\n      tag_17\n      jump\t// in\n    tag_16:\n      mload(0x40)\n      tag_18\n      swap2\n      swap1\n      tag_19\n      jump\t// in\n    tag_18:\n      mload(0x40)\n      dup1\n      swap2\n      sub\n      swap1\n      return\n        /* \"Assets/Owner.sol\":181:203  uint public startBlock */\n    tag_3:\n      callvalue\n      dup1\n      iszero\n      tag_20\n      jumpi\n      0x00\n      dup1\n      revert\n    tag_20:\n      pop\n      tag_21\n      tag_22\n      jump\t// in\n    tag_21:\n      mload(0x40)\n      tag_23\n      swap2\n      swap1\n      tag_19\n      jump\t// in\n    tag_23:\n      mload(0x40)\n      dup1\n      swap2\n      sub\n      swap1\n      return\n        /* \"Assets/Owner.sol\":459:495  mapping(address => uint) public bids */\n    tag_4:\n      callvalue\n      dup1\n      iszero\n      tag_24\n      jumpi\n      0x00\n      dup1\n      revert\n    tag_24:\n      pop\n      tag_25\n      0x04\n      dup1\n      calldatasize\n      sub\n      dup2\n      add\n      swap1\n      tag_26\n      swap2\n      swap1\n      tag_27\n      jump\t// in\n    tag_26:\n      tag_28\n      jump\t// in\n    tag_25:\n      mload(0x40)\n      tag_29\n      swap2\n      swap1\n      tag_19\n      jump\t// in\n    tag_29:\n      mload(0x40)\n      dup1\n      swap2\n      sub\n      swap1\n      return\n        /* \"Assets/Owner.sol\":320:345  State public auctionState */\n    tag_5:\n      callvalue\n      dup1\n      iszero\n      tag_30\n      jumpi\n      0x00\n      dup1\n      revert\n    tag_30:\n      pop\n      tag_31\n      tag_32\n      jump\t// in\n    tag_31:\n      mload(0x40)\n      tag_33\n      swap2\n      swap1\n      tag_34\n      jump\t// in\n    tag_33:\n      mload(0x40)\n      dup1\n      swap2\n      sub\n      swap1\n      return\n        /* \"Assets/Owner.sol\":593:627  bool public ownerFinalized = false */\n    tag_6:\n      callvalue\n      dup1\n      iszero\n      tag_35\n      jumpi\n      0x00\n      dup1\n      revert\n    tag_35:\n      pop\n      tag_36\n      tag_37\n      jump\t// in\n    tag_36:\n      mload(0x40)\n      tag_38\n      swap2\n      swap1\n      tag_39\n      jump\t// in\n    tag_38:\n      mload(0x40)\n      dup1\n      swap2\n      sub\n      swap1\n      return\n        /* \"Assets/Owner.sol\":146:174  address payable public owner */\n    tag_7:\n      callvalue\n      dup1\n      iszero\n      tag_40\n      jumpi\n      0x00\n      dup1\n      revert\n    tag_40:\n      pop\n      tag_41\n      tag_42\n      jump\t// in\n    tag_41:\n      mload(0x40)\n      tag_43\n      swap2\n      swap1\n      tag_44\n      jump\t// in\n    tag_43:\n      mload(0x40)\n      dup1\n      swap2\n      sub\n      swap1\n      return\n        /* \"Assets/Owner.sol\":1414:1514  function cancelAuction() public beforeEnd onlyOwner {... */\n    tag_8:\n      callvalue\n      dup1\n      iszero\n      tag_45\n      jumpi\n      0x00\n      dup1\n      revert\n    tag_45:\n      pop\n      tag_46\n      tag_47\n      jump\t// in\n    tag_46:\n      stop\n        /* \"Assets/Owner.sol\":416:452  address payable public highestBidder */\n    tag_9:\n      callvalue\n      dup1\n      iszero\n      tag_48\n      jumpi\n      0x00\n      dup1\n      revert\n    tag_48:\n      pop\n      tag_49\n      tag_50\n      jump\t// in\n    tag_49:\n      mload(0x40)\n      tag_51\n      swap2\n      swap1\n      tag_44\n      jump\t// in\n    tag_51:\n      mload(0x40)\n      dup1\n      swap2\n      sub\n      swap1\n      return\n        /* \"Assets/Owner.sol\":1522:2251  function placeBid() public payable notOwner afterStart beforeEnd returns(bool){... */\n    tag_10:\n      tag_52\n      tag_53\n      jump\t// in\n    tag_52:\n      mload(0x40)\n      tag_54\n      swap2\n      swap1\n      tag_39\n      jump\t// in\n    tag_54:\n      mload(0x40)\n      dup1\n      swap2\n      sub\n      swap1\n      return\n        /* \"Assets/Owner.sol\":352:381  uint public highestBindingBid */\n    tag_11:\n      callvalue\n      dup1\n      iszero\n      tag_55\n      jumpi\n      0x00\n      dup1\n      revert\n    tag_55:\n      pop\n      tag_56\n      tag_57\n      jump\t// in\n    tag_56:\n      mload(0x40)\n      tag_58\n      swap2\n      swap1\n      tag_19\n      jump\t// in\n    tag_58:\n      mload(0x40)\n      dup1\n      swap2\n      sub\n      swap1\n      return\n        /* \"Assets/Owner.sol\":237:259  string public ipfaHash */\n    tag_12:\n      callvalue\n      dup1\n      iszero\n      tag_59\n      jumpi\n      0x00\n      dup1\n      revert\n    tag_59:\n      pop\n      tag_60\n      tag_61\n      jump\t// in\n    tag_60:\n      mload(0x40)\n      tag_62\n      swap2\n      swap1\n      tag_63\n      jump\t// in\n    tag_62:\n      mload(0x40)\n      dup1\n      swap2\n      sub\n      swap1\n      return\n        /* \"Assets/Owner.sol\":2259:3329  function finalizeAuction() public {... */\n    tag_13:\n      callvalue\n      dup1\n      iszero\n      tag_64\n      jumpi\n      0x00\n      dup1\n      revert\n    tag_64:\n      pop\n      tag_65\n      tag_66\n      jump\t// in\n    tag_65:\n      stop\n        /* \"Assets/Owner.sol\":210:230  uint public endBlock */\n    tag_17:\n      sload(0x02)\n      dup2\n      jump\t// out\n        /* \"Assets/Owner.sol\":181:203  uint public startBlock */\n    tag_22:\n      sload(0x01)\n      dup2\n      jump\t// out\n        /* \"Assets/Owner.sol\":459:495  mapping(address => uint) public bids */\n    tag_28:\n      mstore(0x20, 0x07)\n      dup1\n      0x00\n      mstore\n      keccak256(0x00, 0x40)\n      0x00\n      swap2\n      pop\n      swap1\n      pop\n      sload\n      dup2\n      jump\t// out\n        /* \"Assets/Owner.sol\":320:345  State public auctionState */\n    tag_32:\n      0x04\n      0x00\n      swap1\n      sload\n      swap1\n      0x0100\n      exp\n      swap1\n      div\n      0xff\n      and\n      dup2\n      jump\t// out\n        /* \"Assets/Owner.sol\":593:627  bool public ownerFinalized = false */\n    tag_37:\n      0x09\n      0x00\n      swap1\n      sload\n      swap1\n      0x0100\n      exp\n      swap1\n      div\n      0xff\n      and\n      dup2\n      jump\t// out\n        /* \"Assets/Owner.sol\":146:174  address payable public owner */\n    tag_42:\n      0x00\n      dup1\n      sload\n      swap1\n      0x0100\n      exp\n      swap1\n      div\n      0xffffffffffffffffffffffffffffffffffffffff\n      and\n      dup2\n      jump\t// out\n        /* \"Assets/Owner.sol\":1414:1514  function cancelAuction() public beforeEnd onlyOwner {... */\n    tag_47:\n        /* \"Assets/Owner.sol\":1207:1215  endBlock */\n      sload(0x02)\n        /* \"Assets/Owner.sol\":1191:1203  block.number */\n      number\n        /* \"Assets/Owner.sol\":1191:1215  block.number <= endBlock */\n      gt\n      iszero\n        /* \"Assets/Owner.sol\":1183:1216  require(block.number <= endBlock) */\n      tag_68\n      jumpi\n      0x00\n      dup1\n      revert\n    tag_68:\n        /* \"Assets/Owner.sol\":1023:1028  owner */\n      0x00\n      dup1\n      sload\n      swap1\n      0x0100\n      exp\n      swap1\n      div\n      0xffffffffffffffffffffffffffffffffffffffff\n      and\n        /* \"Assets/Owner.sol\":1009:1028  msg.sender == owner */\n      0xffffffffffffffffffffffffffffffffffffffff\n      and\n        /* \"Assets/Owner.sol\":1009:1019  msg.sender */\n      caller\n        /* \"Assets/Owner.sol\":1009:1028  msg.sender == owner */\n      0xffffffffffffffffffffffffffffffffffffffff\n      and\n      eq\n        /* \"Assets/Owner.sol\":1001:1029  require(msg.sender == owner) */\n      tag_70\n      jumpi\n      0x00\n      dup1\n      revert\n    tag_70:\n        /* \"Assets/Owner.sol\":1492:1506  State.Canceled */\n      0x03\n        /* \"Assets/Owner.sol\":1477:1489  auctionState */\n      0x04\n      0x00\n        /* \"Assets/Owner.sol\":1477:1506  auctionState = State.Canceled */\n      0x0100\n      exp\n      dup2\n      sload\n      dup2\n      0xff\n      mul\n      not\n      and\n      swap1\n      dup4\n      0x03\n      dup2\n      gt\n      iszero\n      tag_72\n      jumpi\n      tag_73\n      tag_74\n      jump\t// in\n    tag_73:\n    tag_72:\n      mul\n      or\n      swap1\n      sstore\n      pop\n        /* \"Assets/Owner.sol\":1414:1514  function cancelAuction() public beforeEnd onlyOwner {... */\n      jump\t// out\n        /* \"Assets/Owner.sol\":416:452  address payable public highestBidder */\n    tag_50:\n      0x06\n      0x00\n      swap1\n      sload\n      swap1\n      0x0100\n      exp\n      swap1\n      div\n      0xffffffffffffffffffffffffffffffffffffffff\n      and\n      dup2\n      jump\t// out\n        /* \"Assets/Owner.sol\":1522:2251  function placeBid() public payable notOwner afterStart beforeEnd returns(bool){... */\n    tag_53:\n        /* \"Assets/Owner.sol\":1595:1599  bool */\n      0x00\n        /* \"Assets/Owner.sol\":936:941  owner */\n      dup1\n      0x00\n      swap1\n      sload\n      swap1\n      0x0100\n      exp\n      swap1\n      div\n      0xffffffffffffffffffffffffffffffffffffffff\n      and\n        /* \"Assets/Owner.sol\":922:941  msg.sender != owner */\n      0xffffffffffffffffffffffffffffffffffffffff\n      and\n        /* \"Assets/Owner.sol\":922:932  msg.sender */\n      caller\n        /* \"Assets/Owner.sol\":922:941  msg.sender != owner */\n      0xffffffffffffffffffffffffffffffffffffffff\n      and\n      sub\n        /* \"Assets/Owner.sol\":914:942  require(msg.sender != owner) */\n      tag_76\n      jumpi\n      0x00\n      dup1\n      revert\n    tag_76:\n        /* \"Assets/Owner.sol\":1113:1123  startBlock */\n      sload(0x01)\n        /* \"Assets/Owner.sol\":1097:1109  block.number */\n      number\n        /* \"Assets/Owner.sol\":1097:1123  block.number >= startBlock */\n      lt\n      iszero\n        /* \"Assets/Owner.sol\":1089:1124  require(block.number >= startBlock) */\n      tag_78\n      jumpi\n      0x00\n      dup1\n      revert\n    tag_78:\n        /* \"Assets/Owner.sol\":1207:1215  endBlock */\n      sload(0x02)\n        /* \"Assets/Owner.sol\":1191:1203  block.number */\n      number\n        /* \"Assets/Owner.sol\":1191:1215  block.number <= endBlock */\n      gt\n      iszero\n        /* \"Assets/Owner.sol\":1183:1216  require(block.number <= endBlock) */\n      tag_80\n      jumpi\n      0x00\n      dup1\n      revert\n    tag_80:\n        /* \"Assets/Owner.sol\":1687:1700  State.Running */\n      0x01\n        /* \"Assets/Owner.sol\":1671:1700  auctionState == State.Running */\n      0x03\n      dup2\n      gt\n      iszero\n      tag_82\n      jumpi\n      tag_83\n      tag_74\n      jump\t// in\n    tag_83:\n    tag_82:\n        /* \"Assets/Owner.sol\":1671:1683  auctionState */\n      0x04\n      0x00\n      swap1\n      sload\n      swap1\n      0x0100\n      exp\n      swap1\n      div\n      0xff\n      and\n        /* \"Assets/Owner.sol\":1671:1700  auctionState == State.Running */\n      0x03\n      dup2\n      gt\n      iszero\n      tag_84\n      jumpi\n      tag_85\n      tag_74\n      jump\t// in\n    tag_85:\n    tag_84:\n      eq\n        /* \"Assets/Owner.sol\":1663:1701  require(auctionState == State.Running) */\n      tag_86\n      jumpi\n      0x00\n      dup1\n      revert\n    tag_86:\n        /* \"Assets/Owner.sol\":1712:1727  uint currentBid */\n      0x00\n        /* \"Assets/Owner.sol\":1749:1758  msg.value */\n      callvalue\n        /* \"Assets/Owner.sol\":1730:1734  bids */\n      0x07\n        /* \"Assets/Owner.sol\":1730:1746  bids[msg.sender] */\n      0x00\n        /* \"Assets/Owner.sol\":1735:1745  msg.sender */\n      caller\n        /* \"Assets/Owner.sol\":1730:1746  bids[msg.sender] */\n      0xffffffffffffffffffffffffffffffffffffffff\n      and\n      0xffffffffffffffffffffffffffffffffffffffff\n      and\n      dup2\n      mstore\n      0x20\n      add\n      swap1\n      dup2\n      mstore\n      0x20\n      add\n      0x00\n      keccak256\n      sload\n        /* \"Assets/Owner.sol\":1730:1758  bids[msg.sender] + msg.value */\n      tag_87\n      swap2\n      swap1\n      tag_88\n      jump\t// in\n    tag_87:\n        /* \"Assets/Owner.sol\":1712:1758  uint currentBid = bids[msg.sender] + msg.value */\n      swap1\n      pop\n        /* \"Assets/Owner.sol\":1790:1807  highestBindingBid */\n      sload(0x05)\n        /* \"Assets/Owner.sol\":1777:1787  currentBid */\n      dup2\n        /* \"Assets/Owner.sol\":1777:1807  currentBid > highestBindingBid */\n      gt\n        /* \"Assets/Owner.sol\":1769:1808  require(currentBid > highestBindingBid) */\n      tag_89\n      jumpi\n      0x00\n      dup1\n      revert\n    tag_89:\n        /* \"Assets/Owner.sol\":1838:1848  currentBid */\n      dup1\n        /* \"Assets/Owner.sol\":1819:1823  bids */\n      0x07\n        /* \"Assets/Owner.sol\":1819:1835  bids[msg.sender] */\n      0x00\n        /* \"Assets/Owner.sol\":1824:1834  msg.sender */\n      caller\n        /* \"Assets/Owner.sol\":1819:1835  bids[msg.sender] */\n      0xffffffffffffffffffffffffffffffffffffffff\n      and\n      0xffffffffffffffffffffffffffffffffffffffff\n      and\n      dup2\n      mstore\n      0x20\n      add\n      swap1\n      dup2\n      mstore\n      0x20\n      add\n      0x00\n      keccak256\n        /* \"Assets/Owner.sol\":1819:1848  bids[msg.sender] = currentBid */\n      dup2\n      swap1\n      sstore\n      pop\n        /* \"Assets/Owner.sol\":1878:1882  bids */\n      0x07\n        /* \"Assets/Owner.sol\":1878:1897  bids[highestBidder] */\n      0x00\n        /* \"Assets/Owner.sol\":1883:1896  highestBidder */\n      0x06\n      0x00\n      swap1\n      sload\n      swap1\n      0x0100\n      exp\n      swap1\n      div\n      0xffffffffffffffffffffffffffffffffffffffff\n      and\n        /* \"Assets/Owner.sol\":1878:1897  bids[highestBidder] */\n      0xffffffffffffffffffffffffffffffffffffffff\n      and\n      0xffffffffffffffffffffffffffffffffffffffff\n      and\n      dup2\n      mstore\n      0x20\n      add\n      swap1\n      dup2\n      mstore\n      0x20\n      add\n      0x00\n      keccak256\n      sload\n        /* \"Assets/Owner.sol\":1864:1874  currentBid */\n      dup2\n        /* \"Assets/Owner.sol\":1864:1897  currentBid <= bids[highestBidder] */\n      gt\n        /* \"Assets/Owner.sol\":1861:2222  if(currentBid <= bids[highestBidder]){  //highestBidder remains unchanged... */\n      tag_90\n      jumpi\n        /* \"Assets/Owner.sol\":1968:2019  min(currentBid + bidIncrement, bids[highestBidder]) */\n      tag_91\n        /* \"Assets/Owner.sol\":1985:1997  bidIncrement */\n      sload(0x08)\n        /* \"Assets/Owner.sol\":1972:1982  currentBid */\n      dup3\n        /* \"Assets/Owner.sol\":1972:1997  currentBid + bidIncrement */\n      tag_92\n      swap2\n      swap1\n      tag_88\n      jump\t// in\n    tag_92:\n        /* \"Assets/Owner.sol\":1999:2003  bids */\n      0x07\n        /* \"Assets/Owner.sol\":1999:2018  bids[highestBidder] */\n      0x00\n        /* \"Assets/Owner.sol\":2004:2017  highestBidder */\n      0x06\n      0x00\n      swap1\n      sload\n      swap1\n      0x0100\n      exp\n      swap1\n      div\n      0xffffffffffffffffffffffffffffffffffffffff\n      and\n        /* \"Assets/Owner.sol\":1999:2018  bids[highestBidder] */\n      0xffffffffffffffffffffffffffffffffffffffff\n      and\n      0xffffffffffffffffffffffffffffffffffffffff\n      and\n      dup2\n      mstore\n      0x20\n      add\n      swap1\n      dup2\n      mstore\n      0x20\n      add\n      0x00\n      keccak256\n      sload\n        /* \"Assets/Owner.sol\":1968:1971  min */\n      tag_93\n        /* \"Assets/Owner.sol\":1968:2019  min(currentBid + bidIncrement, bids[highestBidder]) */\n      jump\t// in\n    tag_91:\n        /* \"Assets/Owner.sol\":1948:1965  highestBindingBid */\n      0x05\n        /* \"Assets/Owner.sol\":1948:2019  highestBindingBid = min(currentBid + bidIncrement, bids[highestBidder]) */\n      dup2\n      swap1\n      sstore\n      pop\n        /* \"Assets/Owner.sol\":1861:2222  if(currentBid <= bids[highestBidder]){  //highestBidder remains unchanged... */\n      jump(tag_94)\n    tag_90:\n        /* \"Assets/Owner.sol\":2109:2160  min(currentBid, bids[highestBidder] + bidIncrement) */\n      tag_95\n        /* \"Assets/Owner.sol\":2113:2123  currentBid */\n      dup2\n        /* \"Assets/Owner.sol\":2147:2159  bidIncrement */\n      sload(0x08)\n        /* \"Assets/Owner.sol\":2125:2129  bids */\n      0x07\n        /* \"Assets/Owner.sol\":2125:2144  bids[highestBidder] */\n      0x00\n        /* \"Assets/Owner.sol\":2130:2143  highestBidder */\n      0x06\n      0x00\n      swap1\n      sload\n      swap1\n      0x0100\n      exp\n      swap1\n      div\n      0xffffffffffffffffffffffffffffffffffffffff\n      and\n        /* \"Assets/Owner.sol\":2125:2144  bids[highestBidder] */\n      0xffffffffffffffffffffffffffffffffffffffff\n      and\n      0xffffffffffffffffffffffffffffffffffffffff\n      and\n      dup2\n      mstore\n      0x20\n      add\n      swap1\n      dup2\n      mstore\n      0x20\n      add\n      0x00\n      keccak256\n      sload\n        /* \"Assets/Owner.sol\":2125:2159  bids[highestBidder] + bidIncrement */\n      tag_96\n      swap2\n      swap1\n      tag_88\n      jump\t// in\n    tag_96:\n        /* \"Assets/Owner.sol\":2109:2112  min */\n      tag_93\n        /* \"Assets/Owner.sol\":2109:2160  min(currentBid, bids[highestBidder] + bidIncrement) */\n      jump\t// in\n    tag_95:\n        /* \"Assets/Owner.sol\":2089:2106  highestBindingBid */\n      0x05\n        /* \"Assets/Owner.sol\":2089:2160  highestBindingBid = min(currentBid, bids[highestBidder] + bidIncrement) */\n      dup2\n      swap1\n      sstore\n      pop\n        /* \"Assets/Owner.sol\":2199:2209  msg.sender */\n      caller\n        /* \"Assets/Owner.sol\":2175:2188  highestBidder */\n      0x06\n      0x00\n        /* \"Assets/Owner.sol\":2175:2210  highestBidder = payable(msg.sender) */\n      0x0100\n      exp\n      dup2\n      sload\n      dup2\n      0xffffffffffffffffffffffffffffffffffffffff\n      mul\n      not\n      and\n      swap1\n      dup4\n      0xffffffffffffffffffffffffffffffffffffffff\n      and\n      mul\n      or\n      swap1\n      sstore\n      pop\n        /* \"Assets/Owner.sol\":1861:2222  if(currentBid <= bids[highestBidder]){  //highestBidder remains unchanged... */\n    tag_94:\n        /* \"Assets/Owner.sol\":2239:2243  true */\n      0x01\n        /* \"Assets/Owner.sol\":2232:2243  return true */\n      swap2\n      pop\n      pop\n        /* \"Assets/Owner.sol\":1522:2251  function placeBid() public payable notOwner afterStart beforeEnd returns(bool){... */\n      swap1\n      jump\t// out\n        /* \"Assets/Owner.sol\":352:381  uint public highestBindingBid */\n    tag_57:\n      sload(0x05)\n      dup2\n      jump\t// out\n        /* \"Assets/Owner.sol\":237:259  string public ipfaHash */\n    tag_61:\n      0x03\n      dup1\n      sload\n      tag_97\n      swap1\n      tag_98\n      jump\t// in\n    tag_97:\n      dup1\n      0x1f\n      add\n      0x20\n      dup1\n      swap2\n      div\n      mul\n      0x20\n      add\n      mload(0x40)\n      swap1\n      dup2\n      add\n      0x40\n      mstore\n      dup1\n      swap3\n      swap2\n      swap1\n      dup2\n      dup2\n      mstore\n      0x20\n      add\n      dup3\n      dup1\n      sload\n      tag_99\n      swap1\n      tag_98\n      jump\t// in\n    tag_99:\n      dup1\n      iszero\n      tag_100\n      jumpi\n      dup1\n      0x1f\n      lt\n      tag_101\n      jumpi\n      0x0100\n      dup1\n      dup4\n      sload\n      div\n      mul\n      dup4\n      mstore\n      swap2\n      0x20\n      add\n      swap2\n      jump(tag_100)\n    tag_101:\n      dup3\n      add\n      swap2\n      swap1\n      0x00\n      mstore\n      keccak256(0x00, 0x20)\n      swap1\n    tag_102:\n      dup2\n      sload\n      dup2\n      mstore\n      swap1\n      0x01\n      add\n      swap1\n      0x20\n      add\n      dup1\n      dup4\n      gt\n      tag_102\n      jumpi\n      dup3\n      swap1\n      sub\n      0x1f\n      and\n      dup3\n      add\n      swap2\n    tag_100:\n      pop\n      pop\n      pop\n      pop\n      pop\n      dup2\n      jump\t// out\n        /* \"Assets/Owner.sol\":2259:3329  function finalizeAuction() public {... */\n    tag_66:\n        /* \"Assets/Owner.sol\":2328:2342  State.Canceled */\n      0x03\n        /* \"Assets/Owner.sol\":2312:2342  auctionState == State.Canceled */\n      dup1\n      dup2\n      gt\n      iszero\n      tag_104\n      jumpi\n      tag_105\n      tag_74\n      jump\t// in\n    tag_105:\n    tag_104:\n        /* \"Assets/Owner.sol\":2312:2324  auctionState */\n      0x04\n      0x00\n      swap1\n      sload\n      swap1\n      0x0100\n      exp\n      swap1\n      div\n      0xff\n      and\n        /* \"Assets/Owner.sol\":2312:2342  auctionState == State.Canceled */\n      0x03\n      dup2\n      gt\n      iszero\n      tag_106\n      jumpi\n      tag_107\n      tag_74\n      jump\t// in\n    tag_107:\n    tag_106:\n      eq\n        /* \"Assets/Owner.sol\":2312:2369  auctionState == State.Canceled || block.number > endBlock */\n      dup1\n      tag_108\n      jumpi\n      pop\n        /* \"Assets/Owner.sol\":2361:2369  endBlock */\n      sload(0x02)\n        /* \"Assets/Owner.sol\":2346:2358  block.number */\n      number\n        /* \"Assets/Owner.sol\":2346:2369  block.number > endBlock */\n      gt\n        /* \"Assets/Owner.sol\":2312:2369  auctionState == State.Canceled || block.number > endBlock */\n    tag_108:\n        /* \"Assets/Owner.sol\":2304:2370  require(auctionState == State.Canceled || block.number > endBlock) */\n      tag_109\n      jumpi\n      0x00\n      dup1\n      revert\n    tag_109:\n        /* \"Assets/Owner.sol\":2403:2408  owner */\n      0x00\n      dup1\n      sload\n      swap1\n      0x0100\n      exp\n      swap1\n      div\n      0xffffffffffffffffffffffffffffffffffffffff\n      and\n        /* \"Assets/Owner.sol\":2389:2408  msg.sender == owner */\n      0xffffffffffffffffffffffffffffffffffffffff\n      and\n        /* \"Assets/Owner.sol\":2389:2399  msg.sender */\n      caller\n        /* \"Assets/Owner.sol\":2389:2408  msg.sender == owner */\n      0xffffffffffffffffffffffffffffffffffffffff\n      and\n      eq\n        /* \"Assets/Owner.sol\":2389:2432  msg.sender == owner || bids[msg.sender] > 0 */\n      dup1\n      tag_110\n      jumpi\n      pop\n        /* \"Assets/Owner.sol\":2431:2432  0 */\n      0x00\n        /* \"Assets/Owner.sol\":2412:2416  bids */\n      0x07\n        /* \"Assets/Owner.sol\":2412:2428  bids[msg.sender] */\n      0x00\n        /* \"Assets/Owner.sol\":2417:2427  msg.sender */\n      caller\n        /* \"Assets/Owner.sol\":2412:2428  bids[msg.sender] */\n      0xffffffffffffffffffffffffffffffffffffffff\n      and\n      0xffffffffffffffffffffffffffffffffffffffff\n      and\n      dup2\n      mstore\n      0x20\n      add\n      swap1\n      dup2\n      mstore\n      0x20\n      add\n      0x00\n      keccak256\n      sload\n        /* \"Assets/Owner.sol\":2412:2432  bids[msg.sender] > 0 */\n      gt\n        /* \"Assets/Owner.sol\":2389:2432  msg.sender == owner || bids[msg.sender] > 0 */\n    tag_110:\n        /* \"Assets/Owner.sol\":2381:2433  require(msg.sender == owner || bids[msg.sender] > 0) */\n      tag_111\n      jumpi\n      0x00\n      dup1\n      revert\n    tag_111:\n        /* \"Assets/Owner.sol\":2446:2471  address payable recipient */\n      0x00\n        /* \"Assets/Owner.sol\":2482:2492  uint value */\n      dup1\n        /* \"Assets/Owner.sol\":2532:2546  State.Canceled */\n      0x03\n        /* \"Assets/Owner.sol\":2516:2546  auctionState == State.Canceled */\n      dup1\n      dup2\n      gt\n      iszero\n      tag_112\n      jumpi\n      tag_113\n      tag_74\n      jump\t// in\n    tag_113:\n    tag_112:\n        /* \"Assets/Owner.sol\":2516:2528  auctionState */\n      0x04\n      0x00\n      swap1\n      sload\n      swap1\n      0x0100\n      exp\n      swap1\n      div\n      0xff\n      and\n        /* \"Assets/Owner.sol\":2516:2546  auctionState == State.Canceled */\n      0x03\n      dup2\n      gt\n      iszero\n      tag_114\n      jumpi\n      tag_115\n      tag_74\n      jump\t// in\n    tag_115:\n    tag_114:\n      sub\n        /* \"Assets/Owner.sol\":2513:3256  if(auctionState == State.Canceled){ //auction cancel, not end... */\n      tag_116\n      jumpi\n        /* \"Assets/Owner.sol\":2608:2618  msg.sender */\n      caller\n        /* \"Assets/Owner.sol\":2588:2619  recipient = payable(msg.sender) */\n      swap2\n      pop\n        /* \"Assets/Owner.sol\":2642:2646  bids */\n      0x07\n        /* \"Assets/Owner.sol\":2642:2658  bids[msg.sender] */\n      0x00\n        /* \"Assets/Owner.sol\":2647:2657  msg.sender */\n      caller\n        /* \"Assets/Owner.sol\":2642:2658  bids[msg.sender] */\n      0xffffffffffffffffffffffffffffffffffffffff\n      and\n      0xffffffffffffffffffffffffffffffffffffffff\n      and\n      dup2\n      mstore\n      0x20\n      add\n      swap1\n      dup2\n      mstore\n      0x20\n      add\n      0x00\n      keccak256\n      sload\n        /* \"Assets/Owner.sol\":2634:2658  value = bids[msg.sender] */\n      swap1\n      pop\n        /* \"Assets/Owner.sol\":2513:3256  if(auctionState == State.Canceled){ //auction cancel, not end... */\n      jump(tag_117)\n    tag_116:\n        /* \"Assets/Owner.sol\":2739:2744  owner */\n      0x00\n      dup1\n      sload\n      swap1\n      0x0100\n      exp\n      swap1\n      div\n      0xffffffffffffffffffffffffffffffffffffffff\n      and\n        /* \"Assets/Owner.sol\":2725:2744  msg.sender == owner */\n      0xffffffffffffffffffffffffffffffffffffffff\n      and\n        /* \"Assets/Owner.sol\":2725:2735  msg.sender */\n      caller\n        /* \"Assets/Owner.sol\":2725:2744  msg.sender == owner */\n      0xffffffffffffffffffffffffffffffffffffffff\n      and\n      eq\n        /* \"Assets/Owner.sol\":2725:2771  msg.sender == owner && ownerFinalized == false */\n      dup1\n      iszero\n      tag_118\n      jumpi\n      pop\n        /* \"Assets/Owner.sol\":2766:2771  false */\n      0x00\n        /* \"Assets/Owner.sol\":2748:2771  ownerFinalized == false */\n      iszero\n      iszero\n        /* \"Assets/Owner.sol\":2748:2762  ownerFinalized */\n      0x09\n      0x00\n      swap1\n      sload\n      swap1\n      0x0100\n      exp\n      swap1\n      div\n      0xff\n      and\n        /* \"Assets/Owner.sol\":2748:2771  ownerFinalized == false */\n      iszero\n      iszero\n      eq\n        /* \"Assets/Owner.sol\":2725:2771  msg.sender == owner && ownerFinalized == false */\n    tag_118:\n        /* \"Assets/Owner.sol\":2722:3245  if(msg.sender == owner && ownerFinalized == false) {... */\n      iszero\n      tag_119\n      jumpi\n        /* \"Assets/Owner.sol\":2804:2809  owner */\n      0x00\n      dup1\n      sload\n      swap1\n      0x0100\n      exp\n      swap1\n      div\n      0xffffffffffffffffffffffffffffffffffffffff\n      and\n        /* \"Assets/Owner.sol\":2792:2809  recipient = owner */\n      swap2\n      pop\n        /* \"Assets/Owner.sol\":2836:2853  highestBindingBid */\n      sload(0x05)\n        /* \"Assets/Owner.sol\":2828:2853  value = highestBindingBid */\n      swap1\n      pop\n        /* \"Assets/Owner.sol\":2889:2893  true */\n      0x01\n        /* \"Assets/Owner.sol\":2872:2886  ownerFinalized */\n      0x09\n      0x00\n        /* \"Assets/Owner.sol\":2872:2893  ownerFinalized = true */\n      0x0100\n      exp\n      dup2\n      sload\n      dup2\n      0xff\n      mul\n      not\n      and\n      swap1\n      dup4\n      iszero\n      iszero\n      mul\n      or\n      swap1\n      sstore\n      pop\n        /* \"Assets/Owner.sol\":2722:3245  if(msg.sender == owner && ownerFinalized == false) {... */\n      jump(tag_120)\n    tag_119:\n        /* \"Assets/Owner.sol\":2951:2964  highestBidder */\n      0x06\n      0x00\n      swap1\n      sload\n      swap1\n      0x0100\n      exp\n      swap1\n      div\n      0xffffffffffffffffffffffffffffffffffffffff\n      and\n        /* \"Assets/Owner.sol\":2937:2964  msg.sender == highestBidder */\n      0xffffffffffffffffffffffffffffffffffffffff\n      and\n        /* \"Assets/Owner.sol\":2937:2947  msg.sender */\n      caller\n        /* \"Assets/Owner.sol\":2937:2964  msg.sender == highestBidder */\n      0xffffffffffffffffffffffffffffffffffffffff\n      and\n      sub\n        /* \"Assets/Owner.sol\":2934:3230  if(msg.sender == highestBidder){... */\n      tag_121\n      jumpi\n        /* \"Assets/Owner.sol\":3000:3013  highestBidder */\n      0x06\n      0x00\n      swap1\n      sload\n      swap1\n      0x0100\n      exp\n      swap1\n      div\n      0xffffffffffffffffffffffffffffffffffffffff\n      and\n        /* \"Assets/Owner.sol\":2988:3013  recipient = highestBidder */\n      swap2\n      pop\n        /* \"Assets/Owner.sol\":3066:3083  highestBindingBid */\n      sload(0x05)\n        /* \"Assets/Owner.sol\":3044:3048  bids */\n      0x07\n        /* \"Assets/Owner.sol\":3044:3063  bids[highestBidder] */\n      0x00\n        /* \"Assets/Owner.sol\":3049:3062  highestBidder */\n      0x06\n      0x00\n      swap1\n      sload\n      swap1\n      0x0100\n      exp\n      swap1\n      div\n      0xffffffffffffffffffffffffffffffffffffffff\n      and\n        /* \"Assets/Owner.sol\":3044:3063  bids[highestBidder] */\n      0xffffffffffffffffffffffffffffffffffffffff\n      and\n      0xffffffffffffffffffffffffffffffffffffffff\n      and\n      dup2\n      mstore\n      0x20\n      add\n      swap1\n      dup2\n      mstore\n      0x20\n      add\n      0x00\n      keccak256\n      sload\n        /* \"Assets/Owner.sol\":3044:3083  bids[highestBidder] - highestBindingBid */\n      tag_122\n      swap2\n      swap1\n      tag_123\n      jump\t// in\n    tag_122:\n        /* \"Assets/Owner.sol\":3036:3083  value = bids[highestBidder] - highestBindingBid */\n      swap1\n      pop\n        /* \"Assets/Owner.sol\":2934:3230  if(msg.sender == highestBidder){... */\n      jump(tag_124)\n    tag_121:\n        /* \"Assets/Owner.sol\":3152:3162  msg.sender */\n      caller\n        /* \"Assets/Owner.sol\":3132:3163  recipient = payable(msg.sender) */\n      swap2\n      pop\n        /* \"Assets/Owner.sol\":3194:3198  bids */\n      0x07\n        /* \"Assets/Owner.sol\":3194:3210  bids[msg.sender] */\n      0x00\n        /* \"Assets/Owner.sol\":3199:3209  msg.sender */\n      caller\n        /* \"Assets/Owner.sol\":3194:3210  bids[msg.sender] */\n      0xffffffffffffffffffffffffffffffffffffffff\n      and\n      0xffffffffffffffffffffffffffffffffffffffff\n      and\n      dup2\n      mstore\n      0x20\n      add\n      swap1\n      dup2\n      mstore\n      0x20\n      add\n      0x00\n      keccak256\n      sload\n        /* \"Assets/Owner.sol\":3186:3210  value = bids[msg.sender] */\n      swap1\n      pop\n        /* \"Assets/Owner.sol\":2934:3230  if(msg.sender == highestBidder){... */\n    tag_124:\n        /* \"Assets/Owner.sol\":2722:3245  if(msg.sender == owner && ownerFinalized == false) {... */\n    tag_120:\n        /* \"Assets/Owner.sol\":2513:3256  if(auctionState == State.Canceled){ //auction cancel, not end... */\n    tag_117:\n        /* \"Assets/Owner.sol\":3284:3285  0 */\n      0x00\n        /* \"Assets/Owner.sol\":3266:3270  bids */\n      0x07\n        /* \"Assets/Owner.sol\":3266:3281  bids[recipient] */\n      0x00\n        /* \"Assets/Owner.sol\":3271:3280  recipient */\n      dup5\n        /* \"Assets/Owner.sol\":3266:3281  bids[recipient] */\n      0xffffffffffffffffffffffffffffffffffffffff\n      and\n      0xffffffffffffffffffffffffffffffffffffffff\n      and\n      dup2\n      mstore\n      0x20\n      add\n      swap1\n      dup2\n      mstore\n      0x20\n      add\n      0x00\n      keccak256\n        /* \"Assets/Owner.sol\":3266:3285  bids[recipient] = 0 */\n      dup2\n      swap1\n      sstore\n      pop\n        /* \"Assets/Owner.sol\":3296:3305  recipient */\n      dup2\n        /* \"Assets/Owner.sol\":3296:3314  recipient.transfer */\n      0xffffffffffffffffffffffffffffffffffffffff\n      and\n        /* \"Assets/Owner.sol\":3296:3321  recipient.transfer(value) */\n      0x08fc\n        /* \"Assets/Owner.sol\":3315:3320  value */\n      dup3\n        /* \"Assets/Owner.sol\":3296:3321  recipient.transfer(value) */\n      swap1\n      dup2\n      iszero\n      mul\n      swap1\n      mload(0x40)\n      0x00\n      mload(0x40)\n      dup1\n      dup4\n      sub\n      dup2\n      dup6\n      dup9\n      dup9\n      call\n      swap4\n      pop\n      pop\n      pop\n      pop\n      iszero\n      dup1\n      iszero\n      tag_126\n      jumpi\n      returndatasize\n      0x00\n      dup1\n      returndatacopy\n      revert(0x00, returndatasize)\n    tag_126:\n      pop\n        /* \"Assets/Owner.sol\":2293:3329  {... */\n      pop\n      pop\n        /* \"Assets/Owner.sol\":2259:3329  function finalizeAuction() public {... */\n      jump\t// out\n        /* \"Assets/Owner.sol\":1244:1406  function min(uint a, uint b) pure internal returns(uint) {... */\n    tag_93:\n        /* \"Assets/Owner.sol\":1295:1299  uint */\n      0x00\n        /* \"Assets/Owner.sol\":1320:1321  b */\n      dup2\n        /* \"Assets/Owner.sol\":1315:1316  a */\n      dup4\n        /* \"Assets/Owner.sol\":1315:1321  a <= b */\n      gt\n        /* \"Assets/Owner.sol\":1312:1399  if(a <= b) {... */\n      tag_128\n      jumpi\n        /* \"Assets/Owner.sol\":1345:1346  a */\n      dup3\n        /* \"Assets/Owner.sol\":1338:1346  return a */\n      swap1\n      pop\n      jump(tag_127)\n        /* \"Assets/Owner.sol\":1312:1399  if(a <= b) {... */\n    tag_128:\n        /* \"Assets/Owner.sol\":1386:1387  b */\n      dup2\n        /* \"Assets/Owner.sol\":1379:1387  return b */\n      swap1\n      pop\n        /* \"Assets/Owner.sol\":1244:1406  function min(uint a, uint b) pure internal returns(uint) {... */\n    tag_127:\n      swap3\n      swap2\n      pop\n      pop\n      jump\t// out\n        /* \"#utility.yul\":7:84   */\n    tag_130:\n        /* \"#utility.yul\":44:51   */\n      0x00\n        /* \"#utility.yul\":73:78   */\n      dup2\n        /* \"#utility.yul\":62:78   */\n      swap1\n      pop\n        /* \"#utility.yul\":7:84   */\n      swap2\n      swap1\n      pop\n      jump\t// out\n        /* \"#utility.yul\":90:208   */\n    tag_131:\n        /* \"#utility.yul\":177:201   */\n      tag_157\n        /* \"#utility.yul\":195:200   */\n      dup2\n        /* \"#utility.yul\":177:201   */\n      tag_130\n      jump\t// in\n    tag_157:\n        /* \"#utility.yul\":172:175   */\n      dup3\n        /* \"#utility.yul\":165:202   */\n      mstore\n        /* \"#utility.yul\":90:208   */\n      pop\n      pop\n      jump\t// out\n        /* \"#utility.yul\":214:436   */\n    tag_19:\n        /* \"#utility.yul\":307:311   */\n      0x00\n        /* \"#utility.yul\":345:347   */\n      0x20\n        /* \"#utility.yul\":334:343   */\n      dup3\n        /* \"#utility.yul\":330:348   */\n      add\n        /* \"#utility.yul\":322:348   */\n      swap1\n      pop\n        /* \"#utility.yul\":358:429   */\n      tag_159\n        /* \"#utility.yul\":426:427   */\n      0x00\n        /* \"#utility.yul\":415:424   */\n      dup4\n        /* \"#utility.yul\":411:428   */\n      add\n        /* \"#utility.yul\":402:408   */\n      dup5\n        /* \"#utility.yul\":358:429   */\n      tag_131\n      jump\t// in\n    tag_159:\n        /* \"#utility.yul\":214:436   */\n      swap3\n      swap2\n      pop\n      pop\n      jump\t// out\n        /* \"#utility.yul\":523:640   */\n    tag_133:\n        /* \"#utility.yul\":632:633   */\n      0x00\n        /* \"#utility.yul\":629:630   */\n      dup1\n        /* \"#utility.yul\":622:634   */\n      revert\n        /* \"#utility.yul\":769:895   */\n    tag_135:\n        /* \"#utility.yul\":806:813   */\n      0x00\n        /* \"#utility.yul\":846:888   */\n      0xffffffffffffffffffffffffffffffffffffffff\n        /* \"#utility.yul\":839:844   */\n      dup3\n        /* \"#utility.yul\":835:889   */\n      and\n        /* \"#utility.yul\":824:889   */\n      swap1\n      pop\n        /* \"#utility.yul\":769:895   */\n      swap2\n      swap1\n      pop\n      jump\t// out\n        /* \"#utility.yul\":901:997   */\n    tag_136:\n        /* \"#utility.yul\":938:945   */\n      0x00\n        /* \"#utility.yul\":967:991   */\n      tag_165\n        /* \"#utility.yul\":985:990   */\n      dup3\n        /* \"#utility.yul\":967:991   */\n      tag_135\n      jump\t// in\n    tag_165:\n        /* \"#utility.yul\":956:991   */\n      swap1\n      pop\n        /* \"#utility.yul\":901:997   */\n      swap2\n      swap1\n      pop\n      jump\t// out\n        /* \"#utility.yul\":1003:1125   */\n    tag_137:\n        /* \"#utility.yul\":1076:1100   */\n      tag_167\n        /* \"#utility.yul\":1094:1099   */\n      dup2\n        /* \"#utility.yul\":1076:1100   */\n      tag_136\n      jump\t// in\n    tag_167:\n        /* \"#utility.yul\":1069:1074   */\n      dup2\n        /* \"#utility.yul\":1066:1101   */\n      eq\n        /* \"#utility.yul\":1056:1119   */\n      tag_168\n      jumpi\n        /* \"#utility.yul\":1115:1116   */\n      0x00\n        /* \"#utility.yul\":1112:1113   */\n      dup1\n        /* \"#utility.yul\":1105:1117   */\n      revert\n        /* \"#utility.yul\":1056:1119   */\n    tag_168:\n        /* \"#utility.yul\":1003:1125   */\n      pop\n      jump\t// out\n        /* \"#utility.yul\":1131:1270   */\n    tag_138:\n        /* \"#utility.yul\":1177:1182   */\n      0x00\n        /* \"#utility.yul\":1215:1221   */\n      dup2\n        /* \"#utility.yul\":1202:1222   */\n      calldataload\n        /* \"#utility.yul\":1193:1222   */\n      swap1\n      pop\n        /* \"#utility.yul\":1231:1264   */\n      tag_170\n        /* \"#utility.yul\":1258:1263   */\n      dup2\n        /* \"#utility.yul\":1231:1264   */\n      tag_137\n      jump\t// in\n    tag_170:\n        /* \"#utility.yul\":1131:1270   */\n      swap3\n      swap2\n      pop\n      pop\n      jump\t// out\n        /* \"#utility.yul\":1276:1605   */\n    tag_27:\n        /* \"#utility.yul\":1335:1341   */\n      0x00\n        /* \"#utility.yul\":1384:1386   */\n      0x20\n        /* \"#utility.yul\":1372:1381   */\n      dup3\n        /* \"#utility.yul\":1363:1370   */\n      dup5\n        /* \"#utility.yul\":1359:1382   */\n      sub\n        /* \"#utility.yul\":1355:1387   */\n      slt\n        /* \"#utility.yul\":1352:1471   */\n      iszero\n      tag_172\n      jumpi\n        /* \"#utility.yul\":1390:1469   */\n      tag_173\n      tag_133\n      jump\t// in\n    tag_173:\n        /* \"#utility.yul\":1352:1471   */\n    tag_172:\n        /* \"#utility.yul\":1510:1511   */\n      0x00\n        /* \"#utility.yul\":1535:1588   */\n      tag_174\n        /* \"#utility.yul\":1580:1587   */\n      dup5\n        /* \"#utility.yul\":1571:1577   */\n      dup3\n        /* \"#utility.yul\":1560:1569   */\n      dup6\n        /* \"#utility.yul\":1556:1578   */\n      add\n        /* \"#utility.yul\":1535:1588   */\n      tag_138\n      jump\t// in\n    tag_174:\n        /* \"#utility.yul\":1525:1588   */\n      swap2\n      pop\n        /* \"#utility.yul\":1481:1598   */\n      pop\n        /* \"#utility.yul\":1276:1605   */\n      swap3\n      swap2\n      pop\n      pop\n      jump\t// out\n        /* \"#utility.yul\":1611:1791   */\n    tag_74:\n        /* \"#utility.yul\":1659:1736   */\n      0x4e487b7100000000000000000000000000000000000000000000000000000000\n        /* \"#utility.yul\":1656:1657   */\n      0x00\n        /* \"#utility.yul\":1649:1737   */\n      mstore\n        /* \"#utility.yul\":1756:1760   */\n      0x21\n        /* \"#utility.yul\":1753:1754   */\n      0x04\n        /* \"#utility.yul\":1746:1761   */\n      mstore\n        /* \"#utility.yul\":1780:1784   */\n      0x24\n        /* \"#utility.yul\":1777:1778   */\n      0x00\n        /* \"#utility.yul\":1770:1785   */\n      revert\n        /* \"#utility.yul\":1797:1909   */\n    tag_139:\n        /* \"#utility.yul\":1877:1878   */\n      0x04\n        /* \"#utility.yul\":1870:1875   */\n      dup2\n        /* \"#utility.yul\":1867:1879   */\n      lt\n        /* \"#utility.yul\":1857:1903   */\n      tag_177\n      jumpi\n        /* \"#utility.yul\":1883:1901   */\n      tag_178\n      tag_74\n      jump\t// in\n    tag_178:\n        /* \"#utility.yul\":1857:1903   */\n    tag_177:\n        /* \"#utility.yul\":1797:1909   */\n      pop\n      jump\t// out\n        /* \"#utility.yul\":1915:2040   */\n    tag_140:\n        /* \"#utility.yul\":1959:1966   */\n      0x00\n        /* \"#utility.yul\":1988:1993   */\n      dup2\n        /* \"#utility.yul\":1977:1993   */\n      swap1\n      pop\n        /* \"#utility.yul\":1994:2034   */\n      tag_180\n        /* \"#utility.yul\":2028:2033   */\n      dup3\n        /* \"#utility.yul\":1994:2034   */\n      tag_139\n      jump\t// in\n    tag_180:\n        /* \"#utility.yul\":1915:2040   */\n      swap2\n      swap1\n      pop\n      jump\t// out\n        /* \"#utility.yul\":2046:2171   */\n    tag_141:\n        /* \"#utility.yul\":2101:2110   */\n      0x00\n        /* \"#utility.yul\":2134:2165   */\n      tag_182\n        /* \"#utility.yul\":2159:2164   */\n      dup3\n        /* \"#utility.yul\":2134:2165   */\n      tag_140\n      jump\t// in\n    tag_182:\n        /* \"#utility.yul\":2121:2165   */\n      swap1\n      pop\n        /* \"#utility.yul\":2046:2171   */\n      swap2\n      swap1\n      pop\n      jump\t// out\n        /* \"#utility.yul\":2177:2318   */\n    tag_142:\n        /* \"#utility.yul\":2269:2311   */\n      tag_184\n        /* \"#utility.yul\":2305:2310   */\n      dup2\n        /* \"#utility.yul\":2269:2311   */\n      tag_141\n      jump\t// in\n    tag_184:\n        /* \"#utility.yul\":2264:2267   */\n      dup3\n        /* \"#utility.yul\":2257:2312   */\n      mstore\n        /* \"#utility.yul\":2177:2318   */\n      pop\n      pop\n      jump\t// out\n        /* \"#utility.yul\":2324:2556   */\n    tag_34:\n        /* \"#utility.yul\":2422:2426   */\n      0x00\n        /* \"#utility.yul\":2460:2462   */\n      0x20\n        /* \"#utility.yul\":2449:2458   */\n      dup3\n        /* \"#utility.yul\":2445:2463   */\n      add\n        /* \"#utility.yul\":2437:2463   */\n      swap1\n      pop\n        /* \"#utility.yul\":2473:2549   */\n      tag_186\n        /* \"#utility.yul\":2546:2547   */\n      0x00\n        /* \"#utility.yul\":2535:2544   */\n      dup4\n        /* \"#utility.yul\":2531:2548   */\n      add\n        /* \"#utility.yul\":2522:2528   */\n      dup5\n        /* \"#utility.yul\":2473:2549   */\n      tag_142\n      jump\t// in\n    tag_186:\n        /* \"#utility.yul\":2324:2556   */\n      swap3\n      swap2\n      pop\n      pop\n      jump\t// out\n        /* \"#utility.yul\":2562:2652   */\n    tag_143:\n        /* \"#utility.yul\":2596:2603   */\n      0x00\n        /* \"#utility.yul\":2639:2644   */\n      dup2\n        /* \"#utility.yul\":2632:2645   */\n      iszero\n        /* \"#utility.yul\":2625:2646   */\n      iszero\n        /* \"#utility.yul\":2614:2646   */\n      swap1\n      pop\n        /* \"#utility.yul\":2562:2652   */\n      swap2\n      swap1\n      pop\n      jump\t// out\n        /* \"#utility.yul\":2658:2767   */\n    tag_144:\n        /* \"#utility.yul\":2739:2760   */\n      tag_189\n        /* \"#utility.yul\":2754:2759   */\n      dup2\n        /* \"#utility.yul\":2739:2760   */\n      tag_143\n      jump\t// in\n    tag_189:\n        /* \"#utility.yul\":2734:2737   */\n      dup3\n        /* \"#utility.yul\":2727:2761   */\n      mstore\n        /* \"#utility.yul\":2658:2767   */\n      pop\n      pop\n      jump\t// out\n        /* \"#utility.yul\":2773:2983   */\n    tag_39:\n        /* \"#utility.yul\":2860:2864   */\n      0x00\n        /* \"#utility.yul\":2898:2900   */\n      0x20\n        /* \"#utility.yul\":2887:2896   */\n      dup3\n        /* \"#utility.yul\":2883:2901   */\n      add\n        /* \"#utility.yul\":2875:2901   */\n      swap1\n      pop\n        /* \"#utility.yul\":2911:2976   */\n      tag_191\n        /* \"#utility.yul\":2973:2974   */\n      0x00\n        /* \"#utility.yul\":2962:2971   */\n      dup4\n        /* \"#utility.yul\":2958:2975   */\n      add\n        /* \"#utility.yul\":2949:2955   */\n      dup5\n        /* \"#utility.yul\":2911:2976   */\n      tag_144\n      jump\t// in\n    tag_191:\n        /* \"#utility.yul\":2773:2983   */\n      swap3\n      swap2\n      pop\n      pop\n      jump\t// out\n        /* \"#utility.yul\":2989:3093   */\n    tag_145:\n        /* \"#utility.yul\":3034:3041   */\n      0x00\n        /* \"#utility.yul\":3063:3087   */\n      tag_193\n        /* \"#utility.yul\":3081:3086   */\n      dup3\n        /* \"#utility.yul\":3063:3087   */\n      tag_135\n      jump\t// in\n    tag_193:\n        /* \"#utility.yul\":3052:3087   */\n      swap1\n      pop\n        /* \"#utility.yul\":2989:3093   */\n      swap2\n      swap1\n      pop\n      jump\t// out\n        /* \"#utility.yul\":3099:3241   */\n    tag_146:\n        /* \"#utility.yul\":3202:3234   */\n      tag_195\n        /* \"#utility.yul\":3228:3233   */\n      dup2\n        /* \"#utility.yul\":3202:3234   */\n      tag_145\n      jump\t// in\n    tag_195:\n        /* \"#utility.yul\":3197:3200   */\n      dup3\n        /* \"#utility.yul\":3190:3235   */\n      mstore\n        /* \"#utility.yul\":3099:3241   */\n      pop\n      pop\n      jump\t// out\n        /* \"#utility.yul\":3247:3501   */\n    tag_44:\n        /* \"#utility.yul\":3356:3360   */\n      0x00\n        /* \"#utility.yul\":3394:3396   */\n      0x20\n        /* \"#utility.yul\":3383:3392   */\n      dup3\n        /* \"#utility.yul\":3379:3397   */\n      add\n        /* \"#utility.yul\":3371:3397   */\n      swap1\n      pop\n        /* \"#utility.yul\":3407:3494   */\n      tag_197\n        /* \"#utility.yul\":3491:3492   */\n      0x00\n        /* \"#utility.yul\":3480:3489   */\n      dup4\n        /* \"#utility.yul\":3476:3493   */\n      add\n        /* \"#utility.yul\":3467:3473   */\n      dup5\n        /* \"#utility.yul\":3407:3494   */\n      tag_146\n      jump\t// in\n    tag_197:\n        /* \"#utility.yul\":3247:3501   */\n      swap3\n      swap2\n      pop\n      pop\n      jump\t// out\n        /* \"#utility.yul\":3507:3606   */\n    tag_147:\n        /* \"#utility.yul\":3559:3565   */\n      0x00\n        /* \"#utility.yul\":3593:3598   */\n      dup2\n        /* \"#utility.yul\":3587:3599   */\n      mload\n        /* \"#utility.yul\":3577:3599   */\n      swap1\n      pop\n        /* \"#utility.yul\":3507:3606   */\n      swap2\n      swap1\n      pop\n      jump\t// out\n        /* \"#utility.yul\":3612:3781   */\n    tag_148:\n        /* \"#utility.yul\":3696:3707   */\n      0x00\n        /* \"#utility.yul\":3730:3736   */\n      dup3\n        /* \"#utility.yul\":3725:3728   */\n      dup3\n        /* \"#utility.yul\":3718:3737   */\n      mstore\n        /* \"#utility.yul\":3770:3774   */\n      0x20\n        /* \"#utility.yul\":3765:3768   */\n      dup3\n        /* \"#utility.yul\":3761:3775   */\n      add\n        /* \"#utility.yul\":3746:3775   */\n      swap1\n      pop\n        /* \"#utility.yul\":3612:3781   */\n      swap3\n      swap2\n      pop\n      pop\n      jump\t// out\n        /* \"#utility.yul\":3787:4033   */\n    tag_149:\n        /* \"#utility.yul\":3868:3869   */\n      0x00\n        /* \"#utility.yul\":3878:3991   */\n    tag_201:\n        /* \"#utility.yul\":3892:3898   */\n      dup4\n        /* \"#utility.yul\":3889:3890   */\n      dup2\n        /* \"#utility.yul\":3886:3899   */\n      lt\n        /* \"#utility.yul\":3878:3991   */\n      iszero\n      tag_203\n      jumpi\n        /* \"#utility.yul\":3977:3978   */\n      dup1\n        /* \"#utility.yul\":3972:3975   */\n      dup3\n        /* \"#utility.yul\":3968:3979   */\n      add\n        /* \"#utility.yul\":3962:3980   */\n      mload\n        /* \"#utility.yul\":3958:3959   */\n      dup2\n        /* \"#utility.yul\":3953:3956   */\n      dup5\n        /* \"#utility.yul\":3949:3960   */\n      add\n        /* \"#utility.yul\":3942:3981   */\n      mstore\n        /* \"#utility.yul\":3914:3916   */\n      0x20\n        /* \"#utility.yul\":3911:3912   */\n      dup2\n        /* \"#utility.yul\":3907:3917   */\n      add\n        /* \"#utility.yul\":3902:3917   */\n      swap1\n      pop\n        /* \"#utility.yul\":3878:3991   */\n      jump(tag_201)\n    tag_203:\n        /* \"#utility.yul\":4025:4026   */\n      0x00\n        /* \"#utility.yul\":4016:4022   */\n      dup5\n        /* \"#utility.yul\":4011:4014   */\n      dup5\n        /* \"#utility.yul\":4007:4023   */\n      add\n        /* \"#utility.yul\":4000:4027   */\n      mstore\n        /* \"#utility.yul\":3849:4033   */\n      pop\n        /* \"#utility.yul\":3787:4033   */\n      pop\n      pop\n      pop\n      jump\t// out\n        /* \"#utility.yul\":4039:4141   */\n    tag_150:\n        /* \"#utility.yul\":4080:4086   */\n      0x00\n        /* \"#utility.yul\":4131:4133   */\n      0x1f\n        /* \"#utility.yul\":4127:4134   */\n      not\n        /* \"#utility.yul\":4122:4124   */\n      0x1f\n        /* \"#utility.yul\":4115:4120   */\n      dup4\n        /* \"#utility.yul\":4111:4125   */\n      add\n        /* \"#utility.yul\":4107:4135   */\n      and\n        /* \"#utility.yul\":4097:4135   */\n      swap1\n      pop\n        /* \"#utility.yul\":4039:4141   */\n      swap2\n      swap1\n      pop\n      jump\t// out\n        /* \"#utility.yul\":4147:4524   */\n    tag_151:\n        /* \"#utility.yul\":4235:4238   */\n      0x00\n        /* \"#utility.yul\":4263:4302   */\n      tag_206\n        /* \"#utility.yul\":4296:4301   */\n      dup3\n        /* \"#utility.yul\":4263:4302   */\n      tag_147\n      jump\t// in\n    tag_206:\n        /* \"#utility.yul\":4318:4389   */\n      tag_207\n        /* \"#utility.yul\":4382:4388   */\n      dup2\n        /* \"#utility.yul\":4377:4380   */\n      dup6\n        /* \"#utility.yul\":4318:4389   */\n      tag_148\n      jump\t// in\n    tag_207:\n        /* \"#utility.yul\":4311:4389   */\n      swap4\n      pop\n        /* \"#utility.yul\":4398:4463   */\n      tag_208\n        /* \"#utility.yul\":4456:4462   */\n      dup2\n        /* \"#utility.yul\":4451:4454   */\n      dup6\n        /* \"#utility.yul\":4444:4448   */\n      0x20\n        /* \"#utility.yul\":4437:4442   */\n      dup7\n        /* \"#utility.yul\":4433:4449   */\n      add\n        /* \"#utility.yul\":4398:4463   */\n      tag_149\n      jump\t// in\n    tag_208:\n        /* \"#utility.yul\":4488:4517   */\n      tag_209\n        /* \"#utility.yul\":4510:4516   */\n      dup2\n        /* \"#utility.yul\":4488:4517   */\n      tag_150\n      jump\t// in\n    tag_209:\n        /* \"#utility.yul\":4483:4486   */\n      dup5\n        /* \"#utility.yul\":4479:4518   */\n      add\n        /* \"#utility.yul\":4472:4518   */\n      swap2\n      pop\n        /* \"#utility.yul\":4239:4524   */\n      pop\n        /* \"#utility.yul\":4147:4524   */\n      swap3\n      swap2\n      pop\n      pop\n      jump\t// out\n        /* \"#utility.yul\":4530:4843   */\n    tag_63:\n        /* \"#utility.yul\":4643:4647   */\n      0x00\n        /* \"#utility.yul\":4681:4683   */\n      0x20\n        /* \"#utility.yul\":4670:4679   */\n      dup3\n        /* \"#utility.yul\":4666:4684   */\n      add\n        /* \"#utility.yul\":4658:4684   */\n      swap1\n      pop\n        /* \"#utility.yul\":4730:4739   */\n      dup2\n        /* \"#utility.yul\":4724:4728   */\n      dup2\n        /* \"#utility.yul\":4720:4740   */\n      sub\n        /* \"#utility.yul\":4716:4717   */\n      0x00\n        /* \"#utility.yul\":4705:4714   */\n      dup4\n        /* \"#utility.yul\":4701:4718   */\n      add\n        /* \"#utility.yul\":4694:4741   */\n      mstore\n        /* \"#utility.yul\":4758:4836   */\n      tag_211\n        /* \"#utility.yul\":4831:4835   */\n      dup2\n        /* \"#utility.yul\":4822:4828   */\n      dup5\n        /* \"#utility.yul\":4758:4836   */\n      tag_151\n      jump\t// in\n    tag_211:\n        /* \"#utility.yul\":4750:4836   */\n      swap1\n      pop\n        /* \"#utility.yul\":4530:4843   */\n      swap3\n      swap2\n      pop\n      pop\n      jump\t// out\n        /* \"#utility.yul\":4849:5029   */\n    tag_152:\n        /* \"#utility.yul\":4897:4974   */\n      0x4e487b7100000000000000000000000000000000000000000000000000000000\n        /* \"#utility.yul\":4894:4895   */\n      0x00\n        /* \"#utility.yul\":4887:4975   */\n      mstore\n        /* \"#utility.yul\":4994:4998   */\n      0x11\n        /* \"#utility.yul\":4991:4992   */\n      0x04\n        /* \"#utility.yul\":4984:4999   */\n      mstore\n        /* \"#utility.yul\":5018:5022   */\n      0x24\n        /* \"#utility.yul\":5015:5016   */\n      0x00\n        /* \"#utility.yul\":5008:5023   */\n      revert\n        /* \"#utility.yul\":5035:5226   */\n    tag_88:\n        /* \"#utility.yul\":5075:5078   */\n      0x00\n        /* \"#utility.yul\":5094:5114   */\n      tag_214\n        /* \"#utility.yul\":5112:5113   */\n      dup3\n        /* \"#utility.yul\":5094:5114   */\n      tag_130\n      jump\t// in\n    tag_214:\n        /* \"#utility.yul\":5089:5114   */\n      swap2\n      pop\n        /* \"#utility.yul\":5128:5148   */\n      tag_215\n        /* \"#utility.yul\":5146:5147   */\n      dup4\n        /* \"#utility.yul\":5128:5148   */\n      tag_130\n      jump\t// in\n    tag_215:\n        /* \"#utility.yul\":5123:5148   */\n      swap3\n      pop\n        /* \"#utility.yul\":5171:5172   */\n      dup3\n        /* \"#utility.yul\":5168:5169   */\n      dup3\n        /* \"#utility.yul\":5164:5173   */\n      add\n        /* \"#utility.yul\":5157:5173   */\n      swap1\n      pop\n        /* \"#utility.yul\":5192:5195   */\n      dup1\n        /* \"#utility.yul\":5189:5190   */\n      dup3\n        /* \"#utility.yul\":5186:5196   */\n      gt\n        /* \"#utility.yul\":5183:5219   */\n      iszero\n      tag_216\n      jumpi\n        /* \"#utility.yul\":5199:5217   */\n      tag_217\n      tag_152\n      jump\t// in\n    tag_217:\n        /* \"#utility.yul\":5183:5219   */\n    tag_216:\n        /* \"#utility.yul\":5035:5226   */\n      swap3\n      swap2\n      pop\n      pop\n      jump\t// out\n        /* \"#utility.yul\":5232:5412   */\n    tag_153:\n        /* \"#utility.yul\":5280:5357   */\n      0x4e487b7100000000000000000000000000000000000000000000000000000000\n        /* \"#utility.yul\":5277:5278   */\n      0x00\n        /* \"#utility.yul\":5270:5358   */\n      mstore\n        /* \"#utility.yul\":5377:5381   */\n      0x22\n        /* \"#utility.yul\":5374:5375   */\n      0x04\n        /* \"#utility.yul\":5367:5382   */\n      mstore\n        /* \"#utility.yul\":5401:5405   */\n      0x24\n        /* \"#utility.yul\":5398:5399   */\n      0x00\n        /* \"#utility.yul\":5391:5406   */\n      revert\n        /* \"#utility.yul\":5418:5738   */\n    tag_98:\n        /* \"#utility.yul\":5462:5468   */\n      0x00\n        /* \"#utility.yul\":5499:5500   */\n      0x02\n        /* \"#utility.yul\":5493:5497   */\n      dup3\n        /* \"#utility.yul\":5489:5501   */\n      div\n        /* \"#utility.yul\":5479:5501   */\n      swap1\n      pop\n        /* \"#utility.yul\":5546:5547   */\n      0x01\n        /* \"#utility.yul\":5540:5544   */\n      dup3\n        /* \"#utility.yul\":5536:5548   */\n      and\n        /* \"#utility.yul\":5567:5585   */\n      dup1\n        /* \"#utility.yul\":5557:5638   */\n      tag_220\n      jumpi\n        /* \"#utility.yul\":5623:5627   */\n      0x7f\n        /* \"#utility.yul\":5615:5621   */\n      dup3\n        /* \"#utility.yul\":5611:5628   */\n      and\n        /* \"#utility.yul\":5601:5628   */\n      swap2\n      pop\n        /* \"#utility.yul\":5557:5638   */\n    tag_220:\n        /* \"#utility.yul\":5685:5687   */\n      0x20\n        /* \"#utility.yul\":5677:5683   */\n      dup3\n        /* \"#utility.yul\":5674:5688   */\n      lt\n        /* \"#utility.yul\":5654:5672   */\n      dup2\n        /* \"#utility.yul\":5651:5689   */\n      sub\n        /* \"#utility.yul\":5648:5732   */\n      tag_221\n      jumpi\n        /* \"#utility.yul\":5704:5722   */\n      tag_222\n      tag_153\n      jump\t// in\n    tag_222:\n        /* \"#utility.yul\":5648:5732   */\n    tag_221:\n        /* \"#utility.yul\":5469:5738   */\n      pop\n        /* \"#utility.yul\":5418:5738   */\n      swap2\n      swap1\n      pop\n      jump\t// out\n        /* \"#utility.yul\":5744:5938   */\n    tag_123:\n        /* \"#utility.yul\":5784:5788   */\n      0x00\n        /* \"#utility.yul\":5804:5824   */\n      tag_224\n        /* \"#utility.yul\":5822:5823   */\n      dup3\n        /* \"#utility.yul\":5804:5824   */\n      tag_130\n      jump\t// in\n    tag_224:\n        /* \"#utility.yul\":5799:5824   */\n      swap2\n      pop\n        /* \"#utility.yul\":5838:5858   */\n      tag_225\n        /* \"#utility.yul\":5856:5857   */\n      dup4\n        /* \"#utility.yul\":5838:5858   */\n      tag_130\n      jump\t// in\n    tag_225:\n        /* \"#utility.yul\":5833:5858   */\n      swap3\n      pop\n        /* \"#utility.yul\":5882:5883   */\n      dup3\n        /* \"#utility.yul\":5879:5880   */\n      dup3\n        /* \"#utility.yul\":5875:5884   */\n      sub\n        /* \"#utility.yul\":5867:5884   */\n      swap1\n      pop\n        /* \"#utility.yul\":5906:5907   */\n      dup2\n        /* \"#utility.yul\":5900:5904   */\n      dup2\n        /* \"#utility.yul\":5897:5908   */\n      gt\n        /* \"#utility.yul\":5894:5931   */\n      iszero\n      tag_226\n      jumpi\n        /* \"#utility.yul\":5911:5929   */\n      tag_227\n      tag_152\n      jump\t// in\n    tag_227:\n        /* \"#utility.yul\":5894:5931   */\n    tag_226:\n        /* \"#utility.yul\":5744:5938   */\n      swap3\n      swap2\n      pop\n      pop\n      jump\t// out\n\n    auxdata: 0xa2646970667358221220f53cc5b05a378b560baff5c5f25b94df8e9cf5ed696d42ea26a95812aaa29b3c64736f6c63430008120033\n}\n",
				"bytecode": {
					"linkReferences": {},
					"object": "60806040526000600960006101000a81548160ff0219169083151502179055503480156200002c57600080fd5b50336000806101000a81548173ffffffffffffffffffffffffffffffffffffffff021916908373ffffffffffffffffffffffffffffffffffffffff1602179055506001600460006101000a81548160ff02191690836003811115620000965762000095620000ef565b5b0217905550436001819055506003600154620000b3919062000157565b6002819055506040518060200160405280600081525060039081620000d9919062000402565b50670de0b6b3a7640000600881905550620004e9565b7f4e487b7100000000000000000000000000000000000000000000000000000000600052602160045260246000fd5b6000819050919050565b7f4e487b7100000000000000000000000000000000000000000000000000000000600052601160045260246000fd5b600062000164826200011e565b915062000171836200011e565b92508282019050808211156200018c576200018b62000128565b5b92915050565b600081519050919050565b7f4e487b7100000000000000000000000000000000000000000000000000000000600052604160045260246000fd5b7f4e487b7100000000000000000000000000000000000000000000000000000000600052602260045260246000fd5b600060028204905060018216806200021457607f821691505b6020821081036200022a5762000229620001cc565b5b50919050565b60008190508160005260206000209050919050565b60006020601f8301049050919050565b600082821b905092915050565b600060088302620002947fffffffffffffffffffffffffffffffffffffffffffffffffffffffffffffffff8262000255565b620002a0868362000255565b95508019841693508086168417925050509392505050565b6000819050919050565b6000620002e3620002dd620002d7846200011e565b620002b8565b6200011e565b9050919050565b6000819050919050565b620002ff83620002c2565b620003176200030e82620002ea565b84845462000262565b825550505050565b600090565b6200032e6200031f565b6200033b818484620002f4565b505050565b5b8181101562000363576200035760008262000324565b60018101905062000341565b5050565b601f821115620003b2576200037c8162000230565b620003878462000245565b8101602085101562000397578190505b620003af620003a68562000245565b83018262000340565b50505b505050565b600082821c905092915050565b6000620003d760001984600802620003b7565b1980831691505092915050565b6000620003f28383620003c4565b9150826002028217905092915050565b6200040d8262000192565b67ffffffffffffffff8111156200042957620004286200019d565b5b620004358254620001fb565b6200044282828562000367565b600060209050601f8311600181146200047a576000841562000465578287015190505b620004718582620003e4565b865550620004e1565b601f1984166200048a8662000230565b60005b82811015620004b4578489015182556001820191506020850194506020810190506200048d565b86831015620004d45784890151620004d0601f891682620003c4565b8355505b6001600288020188555050505b505050505050565b610f0f80620004f96000396000f3fe6080604052600436106100a75760003560e01c80638fa8b790116100645780638fa8b790146101c057806391f90157146101d7578063ecfc7ecc14610202578063f5b56c5614610220578063f75781a41461024b578063f77282ab14610276576100a7565b8063083c6323146100ac57806348cd4cb1146100d757806362ea82db146101025780637fb450991461013f5780638b7b097f1461016a5780638da5cb5b14610195575b600080fd5b3480156100b857600080fd5b506100c161028d565b6040516100ce9190610b81565b60405180910390f35b3480156100e357600080fd5b506100ec610293565b6040516100f99190610b81565b60405180910390f35b34801561010e57600080fd5b5061012960048036038101906101249190610bff565b610299565b6040516101369190610b81565b60405180910390f35b34801561014b57600080fd5b506101546102b1565b6040516101619190610ca3565b60405180910390f35b34801561017657600080fd5b5061017f6102c4565b60405161018c9190610cd9565b60405180910390f35b3480156101a157600080fd5b506101aa6102d7565b6040516101b79190610d15565b60405180910390f35b3480156101cc57600080fd5b506101d56102fb565b005b3480156101e357600080fd5b506101ec61038f565b6040516101f99190610d15565b60405180910390f35b61020a6103b5565b6040516102179190610cd9565b60405180910390f35b34801561022c57600080fd5b506102356106c2565b6040516102429190610b81565b60405180910390f35b34801561025757600080fd5b506102606106c8565b60405161026d9190610dc0565b60405180910390f35b34801561028257600080fd5b5061028b610756565b005b60025481565b60015481565b60076020528060005260406000206000915090505481565b600460009054906101000a900460ff1681565b600960009054906101000a900460ff1681565b60008054906101000a900473ffffffffffffffffffffffffffffffffffffffff1681565b60025443111561030a57600080fd5b60008054906101000a900473ffffffffffffffffffffffffffffffffffffffff1673ffffffffffffffffffffffffffffffffffffffff163373ffffffffffffffffffffffffffffffffffffffff161461036257600080fd5b6003600460006101000a81548160ff0219169083600381111561038857610387610c2c565b5b0217905550565b600660009054906101000a900473ffffffffffffffffffffffffffffffffffffffff1681565b60008060009054906101000a900473ffffffffffffffffffffffffffffffffffffffff1673ffffffffffffffffffffffffffffffffffffffff163373ffffffffffffffffffffffffffffffffffffffff160361041057600080fd5b60015443101561041f57600080fd5b60025443111561042e57600080fd5b6001600381111561044257610441610c2c565b5b600460009054906101000a900460ff16600381111561046457610463610c2c565b5b1461046e57600080fd5b600034600760003373ffffffffffffffffffffffffffffffffffffffff1673ffffffffffffffffffffffffffffffffffffffff168152602001908152602001600020546104bb9190610e11565b905060055481116104cb57600080fd5b80600760003373ffffffffffffffffffffffffffffffffffffffff1673ffffffffffffffffffffffffffffffffffffffff1681526020019081526020016000208190555060076000600660009054906101000a900473ffffffffffffffffffffffffffffffffffffffff1673ffffffffffffffffffffffffffffffffffffffff1673ffffffffffffffffffffffffffffffffffffffff1681526020019081526020016000205481116105fa576105ef600854826105889190610e11565b60076000600660009054906101000a900473ffffffffffffffffffffffffffffffffffffffff1673ffffffffffffffffffffffffffffffffffffffff1673ffffffffffffffffffffffffffffffffffffffff16815260200190815260200160002054610b4d565b6005819055506106ba565b6106728160085460076000600660009054906101000a900473ffffffffffffffffffffffffffffffffffffffff1673ffffffffffffffffffffffffffffffffffffffff1673ffffffffffffffffffffffffffffffffffffffff1681526020019081526020016000205461066d9190610e11565b610b4d565b60058190555033600660006101000a81548173ffffffffffffffffffffffffffffffffffffffff021916908373ffffffffffffffffffffffffffffffffffffffff1602179055505b600191505090565b60055481565b600380546106d590610e74565b80601f016020809104026020016040519081016040528092919081815260200182805461070190610e74565b801561074e5780601f106107235761010080835404028352916020019161074e565b820191906000526020600020905b81548152906001019060200180831161073157829003601f168201915b505050505081565b60038081111561076957610768610c2c565b5b600460009054906101000a900460ff16600381111561078b5761078a610c2c565b5b1480610798575060025443115b6107a157600080fd5b60008054906101000a900473ffffffffffffffffffffffffffffffffffffffff1673ffffffffffffffffffffffffffffffffffffffff163373ffffffffffffffffffffffffffffffffffffffff16148061083a57506000600760003373ffffffffffffffffffffffffffffffffffffffff1673ffffffffffffffffffffffffffffffffffffffff16815260200190815260200160002054115b61084357600080fd5b60008060038081111561085957610858610c2c565b5b600460009054906101000a900460ff16600381111561087b5761087a610c2c565b5b036108ca57339150600760003373ffffffffffffffffffffffffffffffffffffffff1673ffffffffffffffffffffffffffffffffffffffff168152602001908152602001600020549050610abd565b60008054906101000a900473ffffffffffffffffffffffffffffffffffffffff1673ffffffffffffffffffffffffffffffffffffffff163373ffffffffffffffffffffffffffffffffffffffff16148015610938575060001515600960009054906101000a900460ff161515145b156109855760008054906101000a900473ffffffffffffffffffffffffffffffffffffffff16915060055490506001600960006101000a81548160ff021916908315150217905550610abc565b600660009054906101000a900473ffffffffffffffffffffffffffffffffffffffff1673ffffffffffffffffffffffffffffffffffffffff163373ffffffffffffffffffffffffffffffffffffffff1603610a7557600660009054906101000a900473ffffffffffffffffffffffffffffffffffffffff16915060055460076000600660009054906101000a900473ffffffffffffffffffffffffffffffffffffffff1673ffffffffffffffffffffffffffffffffffffffff1673ffffffffffffffffffffffffffffffffffffffff16815260200190815260200160002054610a6e9190610ea5565b9050610abb565b339150600760003373ffffffffffffffffffffffffffffffffffffffff1673ffffffffffffffffffffffffffffffffffffffff1681526020019081526020016000205490505b5b5b6000600760008473ffffffffffffffffffffffffffffffffffffffff1673ffffffffffffffffffffffffffffffffffffffff168152602001908152602001600020819055508173ffffffffffffffffffffffffffffffffffffffff166108fc829081150290604051600060405180830381858888f19350505050158015610b48573d6000803e3d6000fd5b505050565b6000818311610b5e57829050610b62565b8190505b92915050565b6000819050919050565b610b7b81610b68565b82525050565b6000602082019050610b966000830184610b72565b92915050565b600080fd5b600073ffffffffffffffffffffffffffffffffffffffff82169050919050565b6000610bcc82610ba1565b9050919050565b610bdc81610bc1565b8114610be757600080fd5b50565b600081359050610bf981610bd3565b92915050565b600060208284031215610c1557610c14610b9c565b5b6000610c2384828501610bea565b91505092915050565b7f4e487b7100000000000000000000000000000000000000000000000000000000600052602160045260246000fd5b60048110610c6c57610c6b610c2c565b5b50565b6000819050610c7d82610c5b565b919050565b6000610c8d82610c6f565b9050919050565b610c9d81610c82565b82525050565b6000602082019050610cb86000830184610c94565b92915050565b60008115159050919050565b610cd381610cbe565b82525050565b6000602082019050610cee6000830184610cca565b92915050565b6000610cff82610ba1565b9050919050565b610d0f81610cf4565b82525050565b6000602082019050610d2a6000830184610d06565b92915050565b600081519050919050565b600082825260208201905092915050565b60005b83811015610d6a578082015181840152602081019050610d4f565b60008484015250505050565b6000601f19601f8301169050919050565b6000610d9282610d30565b610d9c8185610d3b565b9350610dac818560208601610d4c565b610db581610d76565b840191505092915050565b60006020820190508181036000830152610dda8184610d87565b905092915050565b7f4e487b7100000000000000000000000000000000000000000000000000000000600052601160045260246000fd5b6000610e1c82610b68565b9150610e2783610b68565b9250828201905080821115610e3f57610e3e610de2565b5b92915050565b7f4e487b7100000000000000000000000000000000000000000000000000000000600052602260045260246000fd5b60006002820490506001821680610e8c57607f821691505b602082108103610e9f57610e9e610e45565b5b50919050565b6000610eb082610b68565b9150610ebb83610b68565b9250828203905081811115610ed357610ed2610de2565b5b9291505056fea2646970667358221220f53cc5b05a378b560baff5c5f25b94df8e9cf5ed696d42ea26a95812aaa29b3c64736f6c63430008120033",
					"opcodes": "PUSH1 0x80 PUSH1 0x40 MSTORE PUSH1 0x0 PUSH1 0x9 PUSH1 0x0 PUSH2 0x100 EXP DUP2 SLOAD DUP2 PUSH1 0xFF MUL NOT AND SWAP1 DUP4 ISZERO ISZERO MUL OR SWAP1 SSTORE POP CALLVALUE DUP1 ISZERO PUSH3 0x2C JUMPI PUSH1 0x0 DUP1 REVERT JUMPDEST POP CALLER PUSH1 0x0 DUP1 PUSH2 0x100 EXP DUP2 SLOAD DUP2 PUSH20 0xFFFFFFFFFFFFFFFFFFFFFFFFFFFFFFFFFFFFFFFF MUL NOT AND SWAP1 DUP4 PUSH20 0xFFFFFFFFFFFFFFFFFFFFFFFFFFFFFFFFFFFFFFFF AND MUL OR SWAP1 SSTORE POP PUSH1 0x1 PUSH1 0x4 PUSH1 0x0 PUSH2 0x100 EXP DUP2 SLOAD DUP2 PUSH1 0xFF MUL NOT AND SWAP1 DUP4 PUSH1 0x3 DUP2 GT ISZERO PUSH3 0x96 JUMPI PUSH3 0x95 PUSH3 0xEF JUMP JUMPDEST JUMPDEST MUL OR SWAP1 SSTORE POP NUMBER PUSH1 0x1 DUP2 SWAP1 SSTORE POP PUSH1 0x3 PUSH1 0x1 SLOAD PUSH3 0xB3 SWAP2 SWAP1 PUSH3 0x157 JUMP JUMPDEST PUSH1 0x2 DUP2 SWAP1 SSTORE POP PUSH1 0x40 MLOAD DUP1 PUSH1 0x20 ADD PUSH1 0x40 MSTORE DUP1 PUSH1 0x0 DUP2 MSTORE POP PUSH1 0x3 SWAP1 DUP2 PUSH3 0xD9 SWAP2 SWAP1 PUSH3 0x402 JUMP JUMPDEST POP PUSH8 0xDE0B6B3A7640000 PUSH1 0x8 DUP2 SWAP1 SSTORE POP PUSH3 0x4E9 JUMP JUMPDEST PUSH32 0x4E487B7100000000000000000000000000000000000000000000000000000000 PUSH1 0x0 MSTORE PUSH1 0x21 PUSH1 0x4 MSTORE PUSH1 0x24 PUSH1 0x0 REVERT JUMPDEST PUSH1 0x0 DUP2 SWAP1 POP SWAP2 SWAP1 POP JUMP JUMPDEST PUSH32 0x4E487B7100000000000000000000000000000000000000000000000000000000 PUSH1 0x0 MSTORE PUSH1 0x11 PUSH1 0x4 MSTORE PUSH1 0x24 PUSH1 0x0 REVERT JUMPDEST PUSH1 0x0 PUSH3 0x164 DUP3 PUSH3 0x11E JUMP JUMPDEST SWAP2 POP PUSH3 0x171 DUP4 PUSH3 0x11E JUMP JUMPDEST SWAP3 POP DUP3 DUP3 ADD SWAP1 POP DUP1 DUP3 GT ISZERO PUSH3 0x18C JUMPI PUSH3 0x18B PUSH3 0x128 JUMP JUMPDEST JUMPDEST SWAP3 SWAP2 POP POP JUMP JUMPDEST PUSH1 0x0 DUP2 MLOAD SWAP1 POP SWAP2 SWAP1 POP JUMP JUMPDEST PUSH32 0x4E487B7100000000000000000000000000000000000000000000000000000000 PUSH1 0x0 MSTORE PUSH1 0x41 PUSH1 0x4 MSTORE PUSH1 0x24 PUSH1 0x0 REVERT JUMPDEST PUSH32 0x4E487B7100000000000000000000000000000000000000000000000000000000 PUSH1 0x0 MSTORE PUSH1 0x22 PUSH1 0x4 MSTORE PUSH1 0x24 PUSH1 0x0 REVERT JUMPDEST PUSH1 0x0 PUSH1 0x2 DUP3 DIV SWAP1 POP PUSH1 0x1 DUP3 AND DUP1 PUSH3 0x214 JUMPI PUSH1 0x7F DUP3 AND SWAP2 POP JUMPDEST PUSH1 0x20 DUP3 LT DUP2 SUB PUSH3 0x22A JUMPI PUSH3 0x229 PUSH3 0x1CC JUMP JUMPDEST JUMPDEST POP SWAP2 SWAP1 POP JUMP JUMPDEST PUSH1 0x0 DUP2 SWAP1 POP DUP2 PUSH1 0x0 MSTORE PUSH1 0x20 PUSH1 0x0 KECCAK256 SWAP1 POP SWAP2 SWAP1 POP JUMP JUMPDEST PUSH1 0x0 PUSH1 0x20 PUSH1 0x1F DUP4 ADD DIV SWAP1 POP SWAP2 SWAP1 POP JUMP JUMPDEST PUSH1 0x0 DUP3 DUP3 SHL SWAP1 POP SWAP3 SWAP2 POP POP JUMP JUMPDEST PUSH1 0x0 PUSH1 0x8 DUP4 MUL PUSH3 0x294 PUSH32 0xFFFFFFFFFFFFFFFFFFFFFFFFFFFFFFFFFFFFFFFFFFFFFFFFFFFFFFFFFFFFFFFF DUP3 PUSH3 0x255 JUMP JUMPDEST PUSH3 0x2A0 DUP7 DUP4 PUSH3 0x255 JUMP JUMPDEST SWAP6 POP DUP1 NOT DUP5 AND SWAP4 POP DUP1 DUP7 AND DUP5 OR SWAP3 POP POP POP SWAP4 SWAP3 POP POP POP JUMP JUMPDEST PUSH1 0x0 DUP2 SWAP1 POP SWAP2 SWAP1 POP JUMP JUMPDEST PUSH1 0x0 PUSH3 0x2E3 PUSH3 0x2DD PUSH3 0x2D7 DUP5 PUSH3 0x11E JUMP JUMPDEST PUSH3 0x2B8 JUMP JUMPDEST PUSH3 0x11E JUMP JUMPDEST SWAP1 POP SWAP2 SWAP1 POP JUMP JUMPDEST PUSH1 0x0 DUP2 SWAP1 POP SWAP2 SWAP1 POP JUMP JUMPDEST PUSH3 0x2FF DUP4 PUSH3 0x2C2 JUMP JUMPDEST PUSH3 0x317 PUSH3 0x30E DUP3 PUSH3 0x2EA JUMP JUMPDEST DUP5 DUP5 SLOAD PUSH3 0x262 JUMP JUMPDEST DUP3 SSTORE POP POP POP POP JUMP JUMPDEST PUSH1 0x0 SWAP1 JUMP JUMPDEST PUSH3 0x32E PUSH3 0x31F JUMP JUMPDEST PUSH3 0x33B DUP2 DUP5 DUP5 PUSH3 0x2F4 JUMP JUMPDEST POP POP POP JUMP JUMPDEST JUMPDEST DUP2 DUP2 LT ISZERO PUSH3 0x363 JUMPI PUSH3 0x357 PUSH1 0x0 DUP3 PUSH3 0x324 JUMP JUMPDEST PUSH1 0x1 DUP2 ADD SWAP1 POP PUSH3 0x341 JUMP JUMPDEST POP POP JUMP JUMPDEST PUSH1 0x1F DUP3 GT ISZERO PUSH3 0x3B2 JUMPI PUSH3 0x37C DUP2 PUSH3 0x230 JUMP JUMPDEST PUSH3 0x387 DUP5 PUSH3 0x245 JUMP JUMPDEST DUP2 ADD PUSH1 0x20 DUP6 LT ISZERO PUSH3 0x397 JUMPI DUP2 SWAP1 POP JUMPDEST PUSH3 0x3AF PUSH3 0x3A6 DUP6 PUSH3 0x245 JUMP JUMPDEST DUP4 ADD DUP3 PUSH3 0x340 JUMP JUMPDEST POP POP JUMPDEST POP POP POP JUMP JUMPDEST PUSH1 0x0 DUP3 DUP3 SHR SWAP1 POP SWAP3 SWAP2 POP POP JUMP JUMPDEST PUSH1 0x0 PUSH3 0x3D7 PUSH1 0x0 NOT DUP5 PUSH1 0x8 MUL PUSH3 0x3B7 JUMP JUMPDEST NOT DUP1 DUP4 AND SWAP2 POP POP SWAP3 SWAP2 POP POP JUMP JUMPDEST PUSH1 0x0 PUSH3 0x3F2 DUP4 DUP4 PUSH3 0x3C4 JUMP JUMPDEST SWAP2 POP DUP3 PUSH1 0x2 MUL DUP3 OR SWAP1 POP SWAP3 SWAP2 POP POP JUMP JUMPDEST PUSH3 0x40D DUP3 PUSH3 0x192 JUMP JUMPDEST PUSH8 0xFFFFFFFFFFFFFFFF DUP2 GT ISZERO PUSH3 0x429 JUMPI PUSH3 0x428 PUSH3 0x19D JUMP JUMPDEST JUMPDEST PUSH3 0x435 DUP3 SLOAD PUSH3 0x1FB JUMP JUMPDEST PUSH3 0x442 DUP3 DUP3 DUP6 PUSH3 0x367 JUMP JUMPDEST PUSH1 0x0 PUSH1 0x20 SWAP1 POP PUSH1 0x1F DUP4 GT PUSH1 0x1 DUP2 EQ PUSH3 0x47A JUMPI PUSH1 0x0 DUP5 ISZERO PUSH3 0x465 JUMPI DUP3 DUP8 ADD MLOAD SWAP1 POP JUMPDEST PUSH3 0x471 DUP6 DUP3 PUSH3 0x3E4 JUMP JUMPDEST DUP7 SSTORE POP PUSH3 0x4E1 JUMP JUMPDEST PUSH1 0x1F NOT DUP5 AND PUSH3 0x48A DUP7 PUSH3 0x230 JUMP JUMPDEST PUSH1 0x0 JUMPDEST DUP3 DUP2 LT ISZERO PUSH3 0x4B4 JUMPI DUP5 DUP10 ADD MLOAD DUP3 SSTORE PUSH1 0x1 DUP3 ADD SWAP2 POP PUSH1 0x20 DUP6 ADD SWAP5 POP PUSH1 0x20 DUP2 ADD SWAP1 POP PUSH3 0x48D JUMP JUMPDEST DUP7 DUP4 LT ISZERO PUSH3 0x4D4 JUMPI DUP5 DUP10 ADD MLOAD PUSH3 0x4D0 PUSH1 0x1F DUP10 AND DUP3 PUSH3 0x3C4 JUMP JUMPDEST DUP4 SSTORE POP JUMPDEST PUSH1 0x1 PUSH1 0x2 DUP9 MUL ADD DUP9 SSTORE POP POP POP JUMPDEST POP POP POP POP POP POP JUMP JUMPDEST PUSH2 0xF0F DUP1 PUSH3 0x4F9 PUSH1 0x0 CODECOPY PUSH1 0x0 RETURN INVALID PUSH1 0x80 PUSH1 0x40 MSTORE PUSH1 0x4 CALLDATASIZE LT PUSH2 0xA7 JUMPI PUSH1 0x0 CALLDATALOAD PUSH1 0xE0 SHR DUP1 PUSH4 0x8FA8B790 GT PUSH2 0x64 JUMPI DUP1 PUSH4 0x8FA8B790 EQ PUSH2 0x1C0 JUMPI DUP1 PUSH4 0x91F90157 EQ PUSH2 0x1D7 JUMPI DUP1 PUSH4 0xECFC7ECC EQ PUSH2 0x202 JUMPI DUP1 PUSH4 0xF5B56C56 EQ PUSH2 0x220 JUMPI DUP1 PUSH4 0xF75781A4 EQ PUSH2 0x24B JUMPI DUP1 PUSH4 0xF77282AB EQ PUSH2 0x276 JUMPI PUSH2 0xA7 JUMP JUMPDEST DUP1 PUSH4 0x83C6323 EQ PUSH2 0xAC JUMPI DUP1 PUSH4 0x48CD4CB1 EQ PUSH2 0xD7 JUMPI DUP1 PUSH4 0x62EA82DB EQ PUSH2 0x102 JUMPI DUP1 PUSH4 0x7FB45099 EQ PUSH2 0x13F JUMPI DUP1 PUSH4 0x8B7B097F EQ PUSH2 0x16A JUMPI DUP1 PUSH4 0x8DA5CB5B EQ PUSH2 0x195 JUMPI JUMPDEST PUSH1 0x0 DUP1 REVERT JUMPDEST CALLVALUE DUP1 ISZERO PUSH2 0xB8 JUMPI PUSH1 0x0 DUP1 REVERT JUMPDEST POP PUSH2 0xC1 PUSH2 0x28D JUMP JUMPDEST PUSH1 0x40 MLOAD PUSH2 0xCE SWAP2 SWAP1 PUSH2 0xB81 JUMP JUMPDEST PUSH1 0x40 MLOAD DUP1 SWAP2 SUB SWAP1 RETURN JUMPDEST CALLVALUE DUP1 ISZERO PUSH2 0xE3 JUMPI PUSH1 0x0 DUP1 REVERT JUMPDEST POP PUSH2 0xEC PUSH2 0x293 JUMP JUMPDEST PUSH1 0x40 MLOAD PUSH2 0xF9 SWAP2 SWAP1 PUSH2 0xB81 JUMP JUMPDEST PUSH1 0x40 MLOAD DUP1 SWAP2 SUB SWAP1 RETURN JUMPDEST CALLVALUE DUP1 ISZERO PUSH2 0x10E JUMPI PUSH1 0x0 DUP1 REVERT JUMPDEST POP PUSH2 0x129 PUSH1 0x4 DUP1 CALLDATASIZE SUB DUP2 ADD SWAP1 PUSH2 0x124 SWAP2 SWAP1 PUSH2 0xBFF JUMP JUMPDEST PUSH2 0x299 JUMP JUMPDEST PUSH1 0x40 MLOAD PUSH2 0x136 SWAP2 SWAP1 PUSH2 0xB81 JUMP JUMPDEST PUSH1 0x40 MLOAD DUP1 SWAP2 SUB SWAP1 RETURN JUMPDEST CALLVALUE DUP1 ISZERO PUSH2 0x14B JUMPI PUSH1 0x0 DUP1 REVERT JUMPDEST POP PUSH2 0x154 PUSH2 0x2B1 JUMP JUMPDEST PUSH1 0x40 MLOAD PUSH2 0x161 SWAP2 SWAP1 PUSH2 0xCA3 JUMP JUMPDEST PUSH1 0x40 MLOAD DUP1 SWAP2 SUB SWAP1 RETURN JUMPDEST CALLVALUE DUP1 ISZERO PUSH2 0x176 JUMPI PUSH1 0x0 DUP1 REVERT JUMPDEST POP PUSH2 0x17F PUSH2 0x2C4 JUMP JUMPDEST PUSH1 0x40 MLOAD PUSH2 0x18C SWAP2 SWAP1 PUSH2 0xCD9 JUMP JUMPDEST PUSH1 0x40 MLOAD DUP1 SWAP2 SUB SWAP1 RETURN JUMPDEST CALLVALUE DUP1 ISZERO PUSH2 0x1A1 JUMPI PUSH1 0x0 DUP1 REVERT JUMPDEST POP PUSH2 0x1AA PUSH2 0x2D7 JUMP JUMPDEST PUSH1 0x40 MLOAD PUSH2 0x1B7 SWAP2 SWAP1 PUSH2 0xD15 JUMP JUMPDEST PUSH1 0x40 MLOAD DUP1 SWAP2 SUB SWAP1 RETURN JUMPDEST CALLVALUE DUP1 ISZERO PUSH2 0x1CC JUMPI PUSH1 0x0 DUP1 REVERT JUMPDEST POP PUSH2 0x1D5 PUSH2 0x2FB JUMP JUMPDEST STOP JUMPDEST CALLVALUE DUP1 ISZERO PUSH2 0x1E3 JUMPI PUSH1 0x0 DUP1 REVERT JUMPDEST POP PUSH2 0x1EC PUSH2 0x38F JUMP JUMPDEST PUSH1 0x40 MLOAD PUSH2 0x1F9 SWAP2 SWAP1 PUSH2 0xD15 JUMP JUMPDEST PUSH1 0x40 MLOAD DUP1 SWAP2 SUB SWAP1 RETURN JUMPDEST PUSH2 0x20A PUSH2 0x3B5 JUMP JUMPDEST PUSH1 0x40 MLOAD PUSH2 0x217 SWAP2 SWAP1 PUSH2 0xCD9 JUMP JUMPDEST PUSH1 0x40 MLOAD DUP1 SWAP2 SUB SWAP1 RETURN JUMPDEST CALLVALUE DUP1 ISZERO PUSH2 0x22C JUMPI PUSH1 0x0 DUP1 REVERT JUMPDEST POP PUSH2 0x235 PUSH2 0x6C2 JUMP JUMPDEST PUSH1 0x40 MLOAD PUSH2 0x242 SWAP2 SWAP1 PUSH2 0xB81 JUMP JUMPDEST PUSH1 0x40 MLOAD DUP1 SWAP2 SUB SWAP1 RETURN JUMPDEST CALLVALUE DUP1 ISZERO PUSH2 0x257 JUMPI PUSH1 0x0 DUP1 REVERT JUMPDEST POP PUSH2 0x260 PUSH2 0x6C8 JUMP JUMPDEST PUSH1 0x40 MLOAD PUSH2 0x26D SWAP2 SWAP1 PUSH2 0xDC0 JUMP JUMPDEST PUSH1 0x40 MLOAD DUP1 SWAP2 SUB SWAP1 RETURN JUMPDEST CALLVALUE DUP1 ISZERO PUSH2 0x282 JUMPI PUSH1 0x0 DUP1 REVERT JUMPDEST POP PUSH2 0x28B PUSH2 0x756 JUMP JUMPDEST STOP JUMPDEST PUSH1 0x2 SLOAD DUP2 JUMP JUMPDEST PUSH1 0x1 SLOAD DUP2 JUMP JUMPDEST PUSH1 0x7 PUSH1 0x20 MSTORE DUP1 PUSH1 0x0 MSTORE PUSH1 0x40 PUSH1 0x0 KECCAK256 PUSH1 0x0 SWAP2 POP SWAP1 POP SLOAD DUP2 JUMP JUMPDEST PUSH1 0x4 PUSH1 0x0 SWAP1 SLOAD SWAP1 PUSH2 0x100 EXP SWAP1 DIV PUSH1 0xFF AND DUP2 JUMP JUMPDEST PUSH1 0x9 PUSH1 0x0 SWAP1 SLOAD SWAP1 PUSH2 0x100 EXP SWAP1 DIV PUSH1 0xFF AND DUP2 JUMP JUMPDEST PUSH1 0x0 DUP1 SLOAD SWAP1 PUSH2 0x100 EXP SWAP1 DIV PUSH20 0xFFFFFFFFFFFFFFFFFFFFFFFFFFFFFFFFFFFFFFFF AND DUP2 JUMP JUMPDEST PUSH1 0x2 SLOAD NUMBER GT ISZERO PUSH2 0x30A JUMPI PUSH1 0x0 DUP1 REVERT JUMPDEST PUSH1 0x0 DUP1 SLOAD SWAP1 PUSH2 0x100 EXP SWAP1 DIV PUSH20 0xFFFFFFFFFFFFFFFFFFFFFFFFFFFFFFFFFFFFFFFF AND PUSH20 0xFFFFFFFFFFFFFFFFFFFFFFFFFFFFFFFFFFFFFFFF AND CALLER PUSH20 0xFFFFFFFFFFFFFFFFFFFFFFFFFFFFFFFFFFFFFFFF AND EQ PUSH2 0x362 JUMPI PUSH1 0x0 DUP1 REVERT JUMPDEST PUSH1 0x3 PUSH1 0x4 PUSH1 0x0 PUSH2 0x100 EXP DUP2 SLOAD DUP2 PUSH1 0xFF MUL NOT AND SWAP1 DUP4 PUSH1 0x3 DUP2 GT ISZERO PUSH2 0x388 JUMPI PUSH2 0x387 PUSH2 0xC2C JUMP JUMPDEST JUMPDEST MUL OR SWAP1 SSTORE POP JUMP JUMPDEST PUSH1 0x6 PUSH1 0x0 SWAP1 SLOAD SWAP1 PUSH2 0x100 EXP SWAP1 DIV PUSH20 0xFFFFFFFFFFFFFFFFFFFFFFFFFFFFFFFFFFFFFFFF AND DUP2 JUMP JUMPDEST PUSH1 0x0 DUP1 PUSH1 0x0 SWAP1 SLOAD SWAP1 PUSH2 0x100 EXP SWAP1 DIV PUSH20 0xFFFFFFFFFFFFFFFFFFFFFFFFFFFFFFFFFFFFFFFF AND PUSH20 0xFFFFFFFFFFFFFFFFFFFFFFFFFFFFFFFFFFFFFFFF AND CALLER PUSH20 0xFFFFFFFFFFFFFFFFFFFFFFFFFFFFFFFFFFFFFFFF AND SUB PUSH2 0x410 JUMPI PUSH1 0x0 DUP1 REVERT JUMPDEST PUSH1 0x1 SLOAD NUMBER LT ISZERO PUSH2 0x41F JUMPI PUSH1 0x0 DUP1 REVERT JUMPDEST PUSH1 0x2 SLOAD NUMBER GT ISZERO PUSH2 0x42E JUMPI PUSH1 0x0 DUP1 REVERT JUMPDEST PUSH1 0x1 PUSH1 0x3 DUP2 GT ISZERO PUSH2 0x442 JUMPI PUSH2 0x441 PUSH2 0xC2C JUMP JUMPDEST JUMPDEST PUSH1 0x4 PUSH1 0x0 SWAP1 SLOAD SWAP1 PUSH2 0x100 EXP SWAP1 DIV PUSH1 0xFF AND PUSH1 0x3 DUP2 GT ISZERO PUSH2 0x464 JUMPI PUSH2 0x463 PUSH2 0xC2C JUMP JUMPDEST JUMPDEST EQ PUSH2 0x46E JUMPI PUSH1 0x0 DUP1 REVERT JUMPDEST PUSH1 0x0 CALLVALUE PUSH1 0x7 PUSH1 0x0 CALLER PUSH20 0xFFFFFFFFFFFFFFFFFFFFFFFFFFFFFFFFFFFFFFFF AND PUSH20 0xFFFFFFFFFFFFFFFFFFFFFFFFFFFFFFFFFFFFFFFF AND DUP2 MSTORE PUSH1 0x20 ADD SWAP1 DUP2 MSTORE PUSH1 0x20 ADD PUSH1 0x0 KECCAK256 SLOAD PUSH2 0x4BB SWAP2 SWAP1 PUSH2 0xE11 JUMP JUMPDEST SWAP1 POP PUSH1 0x5 SLOAD DUP2 GT PUSH2 0x4CB JUMPI PUSH1 0x0 DUP1 REVERT JUMPDEST DUP1 PUSH1 0x7 PUSH1 0x0 CALLER PUSH20 0xFFFFFFFFFFFFFFFFFFFFFFFFFFFFFFFFFFFFFFFF AND PUSH20 0xFFFFFFFFFFFFFFFFFFFFFFFFFFFFFFFFFFFFFFFF AND DUP2 MSTORE PUSH1 0x20 ADD SWAP1 DUP2 MSTORE PUSH1 0x20 ADD PUSH1 0x0 KECCAK256 DUP2 SWAP1 SSTORE POP PUSH1 0x7 PUSH1 0x0 PUSH1 0x6 PUSH1 0x0 SWAP1 SLOAD SWAP1 PUSH2 0x100 EXP SWAP1 DIV PUSH20 0xFFFFFFFFFFFFFFFFFFFFFFFFFFFFFFFFFFFFFFFF AND PUSH20 0xFFFFFFFFFFFFFFFFFFFFFFFFFFFFFFFFFFFFFFFF AND PUSH20 0xFFFFFFFFFFFFFFFFFFFFFFFFFFFFFFFFFFFFFFFF AND DUP2 MSTORE PUSH1 0x20 ADD SWAP1 DUP2 MSTORE PUSH1 0x20 ADD PUSH1 0x0 KECCAK256 SLOAD DUP2 GT PUSH2 0x5FA JUMPI PUSH2 0x5EF PUSH1 0x8 SLOAD DUP3 PUSH2 0x588 SWAP2 SWAP1 PUSH2 0xE11 JUMP JUMPDEST PUSH1 0x7 PUSH1 0x0 PUSH1 0x6 PUSH1 0x0 SWAP1 SLOAD SWAP1 PUSH2 0x100 EXP SWAP1 DIV PUSH20 0xFFFFFFFFFFFFFFFFFFFFFFFFFFFFFFFFFFFFFFFF AND PUSH20 0xFFFFFFFFFFFFFFFFFFFFFFFFFFFFFFFFFFFFFFFF AND PUSH20 0xFFFFFFFFFFFFFFFFFFFFFFFFFFFFFFFFFFFFFFFF AND DUP2 MSTORE PUSH1 0x20 ADD SWAP1 DUP2 MSTORE PUSH1 0x20 ADD PUSH1 0x0 KECCAK256 SLOAD PUSH2 0xB4D JUMP JUMPDEST PUSH1 0x5 DUP2 SWAP1 SSTORE POP PUSH2 0x6BA JUMP JUMPDEST PUSH2 0x672 DUP2 PUSH1 0x8 SLOAD PUSH1 0x7 PUSH1 0x0 PUSH1 0x6 PUSH1 0x0 SWAP1 SLOAD SWAP1 PUSH2 0x100 EXP SWAP1 DIV PUSH20 0xFFFFFFFFFFFFFFFFFFFFFFFFFFFFFFFFFFFFFFFF AND PUSH20 0xFFFFFFFFFFFFFFFFFFFFFFFFFFFFFFFFFFFFFFFF AND PUSH20 0xFFFFFFFFFFFFFFFFFFFFFFFFFFFFFFFFFFFFFFFF AND DUP2 MSTORE PUSH1 0x20 ADD SWAP1 DUP2 MSTORE PUSH1 0x20 ADD PUSH1 0x0 KECCAK256 SLOAD PUSH2 0x66D SWAP2 SWAP1 PUSH2 0xE11 JUMP JUMPDEST PUSH2 0xB4D JUMP JUMPDEST PUSH1 0x5 DUP2 SWAP1 SSTORE POP CALLER PUSH1 0x6 PUSH1 0x0 PUSH2 0x100 EXP DUP2 SLOAD DUP2 PUSH20 0xFFFFFFFFFFFFFFFFFFFFFFFFFFFFFFFFFFFFFFFF MUL NOT AND SWAP1 DUP4 PUSH20 0xFFFFFFFFFFFFFFFFFFFFFFFFFFFFFFFFFFFFFFFF AND MUL OR SWAP1 SSTORE POP JUMPDEST PUSH1 0x1 SWAP2 POP POP SWAP1 JUMP JUMPDEST PUSH1 0x5 SLOAD DUP2 JUMP JUMPDEST PUSH1 0x3 DUP1 SLOAD PUSH2 0x6D5 SWAP1 PUSH2 0xE74 JUMP JUMPDEST DUP1 PUSH1 0x1F ADD PUSH1 0x20 DUP1 SWAP2 DIV MUL PUSH1 0x20 ADD PUSH1 0x40 MLOAD SWAP1 DUP2 ADD PUSH1 0x40 MSTORE DUP1 SWAP3 SWAP2 SWAP1 DUP2 DUP2 MSTORE PUSH1 0x20 ADD DUP3 DUP1 SLOAD PUSH2 0x701 SWAP1 PUSH2 0xE74 JUMP JUMPDEST DUP1 ISZERO PUSH2 0x74E JUMPI DUP1 PUSH1 0x1F LT PUSH2 0x723 JUMPI PUSH2 0x100 DUP1 DUP4 SLOAD DIV MUL DUP4 MSTORE SWAP2 PUSH1 0x20 ADD SWAP2 PUSH2 0x74E JUMP JUMPDEST DUP3 ADD SWAP2 SWAP1 PUSH1 0x0 MSTORE PUSH1 0x20 PUSH1 0x0 KECCAK256 SWAP1 JUMPDEST DUP2 SLOAD DUP2 MSTORE SWAP1 PUSH1 0x1 ADD SWAP1 PUSH1 0x20 ADD DUP1 DUP4 GT PUSH2 0x731 JUMPI DUP3 SWAP1 SUB PUSH1 0x1F AND DUP3 ADD SWAP2 JUMPDEST POP POP POP POP POP DUP2 JUMP JUMPDEST PUSH1 0x3 DUP1 DUP2 GT ISZERO PUSH2 0x769 JUMPI PUSH2 0x768 PUSH2 0xC2C JUMP JUMPDEST JUMPDEST PUSH1 0x4 PUSH1 0x0 SWAP1 SLOAD SWAP1 PUSH2 0x100 EXP SWAP1 DIV PUSH1 0xFF AND PUSH1 0x3 DUP2 GT ISZERO PUSH2 0x78B JUMPI PUSH2 0x78A PUSH2 0xC2C JUMP JUMPDEST JUMPDEST EQ DUP1 PUSH2 0x798 JUMPI POP PUSH1 0x2 SLOAD NUMBER GT JUMPDEST PUSH2 0x7A1 JUMPI PUSH1 0x0 DUP1 REVERT JUMPDEST PUSH1 0x0 DUP1 SLOAD SWAP1 PUSH2 0x100 EXP SWAP1 DIV PUSH20 0xFFFFFFFFFFFFFFFFFFFFFFFFFFFFFFFFFFFFFFFF AND PUSH20 0xFFFFFFFFFFFFFFFFFFFFFFFFFFFFFFFFFFFFFFFF AND CALLER PUSH20 0xFFFFFFFFFFFFFFFFFFFFFFFFFFFFFFFFFFFFFFFF AND EQ DUP1 PUSH2 0x83A JUMPI POP PUSH1 0x0 PUSH1 0x7 PUSH1 0x0 CALLER PUSH20 0xFFFFFFFFFFFFFFFFFFFFFFFFFFFFFFFFFFFFFFFF AND PUSH20 0xFFFFFFFFFFFFFFFFFFFFFFFFFFFFFFFFFFFFFFFF AND DUP2 MSTORE PUSH1 0x20 ADD SWAP1 DUP2 MSTORE PUSH1 0x20 ADD PUSH1 0x0 KECCAK256 SLOAD GT JUMPDEST PUSH2 0x843 JUMPI PUSH1 0x0 DUP1 REVERT JUMPDEST PUSH1 0x0 DUP1 PUSH1 0x3 DUP1 DUP2 GT ISZERO PUSH2 0x859 JUMPI PUSH2 0x858 PUSH2 0xC2C JUMP JUMPDEST JUMPDEST PUSH1 0x4 PUSH1 0x0 SWAP1 SLOAD SWAP1 PUSH2 0x100 EXP SWAP1 DIV PUSH1 0xFF AND PUSH1 0x3 DUP2 GT ISZERO PUSH2 0x87B JUMPI PUSH2 0x87A PUSH2 0xC2C JUMP JUMPDEST JUMPDEST SUB PUSH2 0x8CA JUMPI CALLER SWAP2 POP PUSH1 0x7 PUSH1 0x0 CALLER PUSH20 0xFFFFFFFFFFFFFFFFFFFFFFFFFFFFFFFFFFFFFFFF AND PUSH20 0xFFFFFFFFFFFFFFFFFFFFFFFFFFFFFFFFFFFFFFFF AND DUP2 MSTORE PUSH1 0x20 ADD SWAP1 DUP2 MSTORE PUSH1 0x20 ADD PUSH1 0x0 KECCAK256 SLOAD SWAP1 POP PUSH2 0xABD JUMP JUMPDEST PUSH1 0x0 DUP1 SLOAD SWAP1 PUSH2 0x100 EXP SWAP1 DIV PUSH20 0xFFFFFFFFFFFFFFFFFFFFFFFFFFFFFFFFFFFFFFFF AND PUSH20 0xFFFFFFFFFFFFFFFFFFFFFFFFFFFFFFFFFFFFFFFF AND CALLER PUSH20 0xFFFFFFFFFFFFFFFFFFFFFFFFFFFFFFFFFFFFFFFF AND EQ DUP1 ISZERO PUSH2 0x938 JUMPI POP PUSH1 0x0 ISZERO ISZERO PUSH1 0x9 PUSH1 0x0 SWAP1 SLOAD SWAP1 PUSH2 0x100 EXP SWAP1 DIV PUSH1 0xFF AND ISZERO ISZERO EQ JUMPDEST ISZERO PUSH2 0x985 JUMPI PUSH1 0x0 DUP1 SLOAD SWAP1 PUSH2 0x100 EXP SWAP1 DIV PUSH20 0xFFFFFFFFFFFFFFFFFFFFFFFFFFFFFFFFFFFFFFFF AND SWAP2 POP PUSH1 0x5 SLOAD SWAP1 POP PUSH1 0x1 PUSH1 0x9 PUSH1 0x0 PUSH2 0x100 EXP DUP2 SLOAD DUP2 PUSH1 0xFF MUL NOT AND SWAP1 DUP4 ISZERO ISZERO MUL OR SWAP1 SSTORE POP PUSH2 0xABC JUMP JUMPDEST PUSH1 0x6 PUSH1 0x0 SWAP1 SLOAD SWAP1 PUSH2 0x100 EXP SWAP1 DIV PUSH20 0xFFFFFFFFFFFFFFFFFFFFFFFFFFFFFFFFFFFFFFFF AND PUSH20 0xFFFFFFFFFFFFFFFFFFFFFFFFFFFFFFFFFFFFFFFF AND CALLER PUSH20 0xFFFFFFFFFFFFFFFFFFFFFFFFFFFFFFFFFFFFFFFF AND SUB PUSH2 0xA75 JUMPI PUSH1 0x6 PUSH1 0x0 SWAP1 SLOAD SWAP1 PUSH2 0x100 EXP SWAP1 DIV PUSH20 0xFFFFFFFFFFFFFFFFFFFFFFFFFFFFFFFFFFFFFFFF AND SWAP2 POP PUSH1 0x5 SLOAD PUSH1 0x7 PUSH1 0x0 PUSH1 0x6 PUSH1 0x0 SWAP1 SLOAD SWAP1 PUSH2 0x100 EXP SWAP1 DIV PUSH20 0xFFFFFFFFFFFFFFFFFFFFFFFFFFFFFFFFFFFFFFFF AND PUSH20 0xFFFFFFFFFFFFFFFFFFFFFFFFFFFFFFFFFFFFFFFF AND PUSH20 0xFFFFFFFFFFFFFFFFFFFFFFFFFFFFFFFFFFFFFFFF AND DUP2 MSTORE PUSH1 0x20 ADD SWAP1 DUP2 MSTORE PUSH1 0x20 ADD PUSH1 0x0 KECCAK256 SLOAD PUSH2 0xA6E SWAP2 SWAP1 PUSH2 0xEA5 JUMP JUMPDEST SWAP1 POP PUSH2 0xABB JUMP JUMPDEST CALLER SWAP2 POP PUSH1 0x7 PUSH1 0x0 CALLER PUSH20 0xFFFFFFFFFFFFFFFFFFFFFFFFFFFFFFFFFFFFFFFF AND PUSH20 0xFFFFFFFFFFFFFFFFFFFFFFFFFFFFFFFFFFFFFFFF AND DUP2 MSTORE PUSH1 0x20 ADD SWAP1 DUP2 MSTORE PUSH1 0x20 ADD PUSH1 0x0 KECCAK256 SLOAD SWAP1 POP JUMPDEST JUMPDEST JUMPDEST PUSH1 0x0 PUSH1 0x7 PUSH1 0x0 DUP5 PUSH20 0xFFFFFFFFFFFFFFFFFFFFFFFFFFFFFFFFFFFFFFFF AND PUSH20 0xFFFFFFFFFFFFFFFFFFFFFFFFFFFFFFFFFFFFFFFF AND DUP2 MSTORE PUSH1 0x20 ADD SWAP1 DUP2 MSTORE PUSH1 0x20 ADD PUSH1 0x0 KECCAK256 DUP2 SWAP1 SSTORE POP DUP2 PUSH20 0xFFFFFFFFFFFFFFFFFFFFFFFFFFFFFFFFFFFFFFFF AND PUSH2 0x8FC DUP3 SWAP1 DUP2 ISZERO MUL SWAP1 PUSH1 0x40 MLOAD PUSH1 0x0 PUSH1 0x40 MLOAD DUP1 DUP4 SUB DUP2 DUP6 DUP9 DUP9 CALL SWAP4 POP POP POP POP ISZERO DUP1 ISZERO PUSH2 0xB48 JUMPI RETURNDATASIZE PUSH1 0x0 DUP1 RETURNDATACOPY RETURNDATASIZE PUSH1 0x0 REVERT JUMPDEST POP POP POP JUMP JUMPDEST PUSH1 0x0 DUP2 DUP4 GT PUSH2 0xB5E JUMPI DUP3 SWAP1 POP PUSH2 0xB62 JUMP JUMPDEST DUP2 SWAP1 POP JUMPDEST SWAP3 SWAP2 POP POP JUMP JUMPDEST PUSH1 0x0 DUP2 SWAP1 POP SWAP2 SWAP1 POP JUMP JUMPDEST PUSH2 0xB7B DUP2 PUSH2 0xB68 JUMP JUMPDEST DUP3 MSTORE POP POP JUMP JUMPDEST PUSH1 0x0 PUSH1 0x20 DUP3 ADD SWAP1 POP PUSH2 0xB96 PUSH1 0x0 DUP4 ADD DUP5 PUSH2 0xB72 JUMP JUMPDEST SWAP3 SWAP2 POP POP JUMP JUMPDEST PUSH1 0x0 DUP1 REVERT JUMPDEST PUSH1 0x0 PUSH20 0xFFFFFFFFFFFFFFFFFFFFFFFFFFFFFFFFFFFFFFFF DUP3 AND SWAP1 POP SWAP2 SWAP1 POP JUMP JUMPDEST PUSH1 0x0 PUSH2 0xBCC DUP3 PUSH2 0xBA1 JUMP JUMPDEST SWAP1 POP SWAP2 SWAP1 POP JUMP JUMPDEST PUSH2 0xBDC DUP2 PUSH2 0xBC1 JUMP JUMPDEST DUP2 EQ PUSH2 0xBE7 JUMPI PUSH1 0x0 DUP1 REVERT JUMPDEST POP JUMP JUMPDEST PUSH1 0x0 DUP2 CALLDATALOAD SWAP1 POP PUSH2 0xBF9 DUP2 PUSH2 0xBD3 JUMP JUMPDEST SWAP3 SWAP2 POP POP JUMP JUMPDEST PUSH1 0x0 PUSH1 0x20 DUP3 DUP5 SUB SLT ISZERO PUSH2 0xC15 JUMPI PUSH2 0xC14 PUSH2 0xB9C JUMP JUMPDEST JUMPDEST PUSH1 0x0 PUSH2 0xC23 DUP5 DUP3 DUP6 ADD PUSH2 0xBEA JUMP JUMPDEST SWAP2 POP POP SWAP3 SWAP2 POP POP JUMP JUMPDEST PUSH32 0x4E487B7100000000000000000000000000000000000000000000000000000000 PUSH1 0x0 MSTORE PUSH1 0x21 PUSH1 0x4 MSTORE PUSH1 0x24 PUSH1 0x0 REVERT JUMPDEST PUSH1 0x4 DUP2 LT PUSH2 0xC6C JUMPI PUSH2 0xC6B PUSH2 0xC2C JUMP JUMPDEST JUMPDEST POP JUMP JUMPDEST PUSH1 0x0 DUP2 SWAP1 POP PUSH2 0xC7D DUP3 PUSH2 0xC5B JUMP JUMPDEST SWAP2 SWAP1 POP JUMP JUMPDEST PUSH1 0x0 PUSH2 0xC8D DUP3 PUSH2 0xC6F JUMP JUMPDEST SWAP1 POP SWAP2 SWAP1 POP JUMP JUMPDEST PUSH2 0xC9D DUP2 PUSH2 0xC82 JUMP JUMPDEST DUP3 MSTORE POP POP JUMP JUMPDEST PUSH1 0x0 PUSH1 0x20 DUP3 ADD SWAP1 POP PUSH2 0xCB8 PUSH1 0x0 DUP4 ADD DUP5 PUSH2 0xC94 JUMP JUMPDEST SWAP3 SWAP2 POP POP JUMP JUMPDEST PUSH1 0x0 DUP2 ISZERO ISZERO SWAP1 POP SWAP2 SWAP1 POP JUMP JUMPDEST PUSH2 0xCD3 DUP2 PUSH2 0xCBE JUMP JUMPDEST DUP3 MSTORE POP POP JUMP JUMPDEST PUSH1 0x0 PUSH1 0x20 DUP3 ADD SWAP1 POP PUSH2 0xCEE PUSH1 0x0 DUP4 ADD DUP5 PUSH2 0xCCA JUMP JUMPDEST SWAP3 SWAP2 POP POP JUMP JUMPDEST PUSH1 0x0 PUSH2 0xCFF DUP3 PUSH2 0xBA1 JUMP JUMPDEST SWAP1 POP SWAP2 SWAP1 POP JUMP JUMPDEST PUSH2 0xD0F DUP2 PUSH2 0xCF4 JUMP JUMPDEST DUP3 MSTORE POP POP JUMP JUMPDEST PUSH1 0x0 PUSH1 0x20 DUP3 ADD SWAP1 POP PUSH2 0xD2A PUSH1 0x0 DUP4 ADD DUP5 PUSH2 0xD06 JUMP JUMPDEST SWAP3 SWAP2 POP POP JUMP JUMPDEST PUSH1 0x0 DUP2 MLOAD SWAP1 POP SWAP2 SWAP1 POP JUMP JUMPDEST PUSH1 0x0 DUP3 DUP3 MSTORE PUSH1 0x20 DUP3 ADD SWAP1 POP SWAP3 SWAP2 POP POP JUMP JUMPDEST PUSH1 0x0 JUMPDEST DUP4 DUP2 LT ISZERO PUSH2 0xD6A JUMPI DUP1 DUP3 ADD MLOAD DUP2 DUP5 ADD MSTORE PUSH1 0x20 DUP2 ADD SWAP1 POP PUSH2 0xD4F JUMP JUMPDEST PUSH1 0x0 DUP5 DUP5 ADD MSTORE POP POP POP POP JUMP JUMPDEST PUSH1 0x0 PUSH1 0x1F NOT PUSH1 0x1F DUP4 ADD AND SWAP1 POP SWAP2 SWAP1 POP JUMP JUMPDEST PUSH1 0x0 PUSH2 0xD92 DUP3 PUSH2 0xD30 JUMP JUMPDEST PUSH2 0xD9C DUP2 DUP6 PUSH2 0xD3B JUMP JUMPDEST SWAP4 POP PUSH2 0xDAC DUP2 DUP6 PUSH1 0x20 DUP7 ADD PUSH2 0xD4C JUMP JUMPDEST PUSH2 0xDB5 DUP2 PUSH2 0xD76 JUMP JUMPDEST DUP5 ADD SWAP2 POP POP SWAP3 SWAP2 POP POP JUMP JUMPDEST PUSH1 0x0 PUSH1 0x20 DUP3 ADD SWAP1 POP DUP2 DUP2 SUB PUSH1 0x0 DUP4 ADD MSTORE PUSH2 0xDDA DUP2 DUP5 PUSH2 0xD87 JUMP JUMPDEST SWAP1 POP SWAP3 SWAP2 POP POP JUMP JUMPDEST PUSH32 0x4E487B7100000000000000000000000000000000000000000000000000000000 PUSH1 0x0 MSTORE PUSH1 0x11 PUSH1 0x4 MSTORE PUSH1 0x24 PUSH1 0x0 REVERT JUMPDEST PUSH1 0x0 PUSH2 0xE1C DUP3 PUSH2 0xB68 JUMP JUMPDEST SWAP2 POP PUSH2 0xE27 DUP4 PUSH2 0xB68 JUMP JUMPDEST SWAP3 POP DUP3 DUP3 ADD SWAP1 POP DUP1 DUP3 GT ISZERO PUSH2 0xE3F JUMPI PUSH2 0xE3E PUSH2 0xDE2 JUMP JUMPDEST JUMPDEST SWAP3 SWAP2 POP POP JUMP JUMPDEST PUSH32 0x4E487B7100000000000000000000000000000000000000000000000000000000 PUSH1 0x0 MSTORE PUSH1 0x22 PUSH1 0x4 MSTORE PUSH1 0x24 PUSH1 0x0 REVERT JUMPDEST PUSH1 0x0 PUSH1 0x2 DUP3 DIV SWAP1 POP PUSH1 0x1 DUP3 AND DUP1 PUSH2 0xE8C JUMPI PUSH1 0x7F DUP3 AND SWAP2 POP JUMPDEST PUSH1 0x20 DUP3 LT DUP2 SUB PUSH2 0xE9F JUMPI PUSH2 0xE9E PUSH2 0xE45 JUMP JUMPDEST JUMPDEST POP SWAP2 SWAP1 POP JUMP JUMPDEST PUSH1 0x0 PUSH2 0xEB0 DUP3 PUSH2 0xB68 JUMP JUMPDEST SWAP2 POP PUSH2 0xEBB DUP4 PUSH2 0xB68 JUMP JUMPDEST SWAP3 POP DUP3 DUP3 SUB SWAP1 POP DUP2 DUP2 GT ISZERO PUSH2 0xED3 JUMPI PUSH2 0xED2 PUSH2 0xDE2 JUMP JUMPDEST JUMPDEST SWAP3 SWAP2 POP POP JUMP INVALID LOG2 PUSH5 0x6970667358 0x22 SLT KECCAK256 CREATE2 EXTCODECOPY 0xC5 0xB0 GAS CALLDATACOPY DUP12 JUMP SIGNEXTEND 0xAF CREATE2 0xC5 CALLCODE JUMPDEST SWAP5 0xDF DUP15 SWAP13 CREATE2 0xED PUSH10 0x6D42EA26A95812AAA29B EXTCODECOPY PUSH5 0x736F6C6343 STOP ADDMOD SLT STOP CALLER "
				},
				"gasEstimates": {
					"creation": {
						"codeDepositCost": "771000",
						"executionCost": "infinite",
						"totalCost": "infinite"
					},
					"external": {
						"auctionState()": "2627",
						"bids(address)": "2859",
						"cancelAuction()": "28723",
						"endBlock()": "2430",
						"finalizeAuction()": "infinite",
						"highestBidder()": "2536",
						"highestBindingBid()": "2495",
						"ipfaHash()": "infinite",
						"owner()": "2622",
						"ownerFinalized()": "2560",
						"placeBid()": "infinite",
						"startBlock()": "2452"
					},
					"internal": {
						"min(uint256,uint256)": "64"
					}
				},
				"methodIdentifiers": {
					"auctionState()": "7fb45099",
					"bids(address)": "62ea82db",
					"cancelAuction()": "8fa8b790",
					"endBlock()": "083c6323",
					"finalizeAuction()": "f77282ab",
					"highestBidder()": "91f90157",
					"highestBindingBid()": "f5b56c56",
					"ipfaHash()": "f75781a4",
					"owner()": "8da5cb5b",
					"ownerFinalized()": "8b7b097f",
					"placeBid()": "ecfc7ecc",
					"startBlock()": "48cd4cb1"
				}
			},
			"storageLayout": {
				"storage": [
					{
						"astId": 8,
						"contract": "Assets/Owner.sol:Owner",
						"label": "owner",
						"offset": 0,
						"slot": "0",
						"type": "t_address_payable"
					},
					{
						"astId": 10,
						"contract": "Assets/Owner.sol:Owner",
						"label": "startBlock",
						"offset": 0,
						"slot": "1",
						"type": "t_uint256"
					},
					{
						"astId": 12,
						"contract": "Assets/Owner.sol:Owner",
						"label": "endBlock",
						"offset": 0,
						"slot": "2",
						"type": "t_uint256"
					},
					{
						"astId": 14,
						"contract": "Assets/Owner.sol:Owner",
						"label": "ipfaHash",
						"offset": 0,
						"slot": "3",
						"type": "t_string_storage"
					},
					{
						"astId": 17,
						"contract": "Assets/Owner.sol:Owner",
						"label": "auctionState",
						"offset": 0,
						"slot": "4",
						"type": "t_enum(State)6"
					},
					{
						"astId": 19,
						"contract": "Assets/Owner.sol:Owner",
						"label": "highestBindingBid",
						"offset": 0,
						"slot": "5",
						"type": "t_uint256"
					},
					{
						"astId": 21,
						"contract": "Assets/Owner.sol:Owner",
						"label": "highestBidder",
						"offset": 0,
						"slot": "6",
						"type": "t_address_payable"
					},
					{
						"astId": 25,
						"contract": "Assets/Owner.sol:Owner",
						"label": "bids",
						"offset": 0,
						"slot": "7",
						"type": "t_mapping(t_address,t_uint256)"
					},
					{
						"astId": 27,
						"contract": "Assets/Owner.sol:Owner",
						"label": "bidIncrement",
						"offset": 0,
						"slot": "8",
						"type": "t_uint256"
					},
					{
						"astId": 30,
						"contract": "Assets/Owner.sol:Owner",
						"label": "ownerFinalized",
						"offset": 0,
						"slot": "9",
						"type": "t_bool"
					}
				],
				"types": {
					"t_address": {
						"encoding": "inplace",
						"label": "address",
						"numberOfBytes": "20"
					},
					"t_address_payable": {
						"encoding": "inplace",
						"label": "address payable",
						"numberOfBytes": "20"
					},
					"t_bool": {
						"encoding": "inplace",
						"label": "bool",
						"numberOfBytes": "1"
					},
					"t_enum(State)6": {
						"encoding": "inplace",
						"label": "enum Owner.State",
						"numberOfBytes": "1"
					},
					"t_mapping(t_address,t_uint256)": {
						"encoding": "mapping",
						"key": "t_address",
						"label": "mapping(address => uint256)",
						"numberOfBytes": "32",
						"value": "t_uint256"
					},
					"t_string_storage": {
						"encoding": "bytes",
						"label": "string",
						"numberOfBytes": "32"
					},
					"t_uint256": {
						"encoding": "inplace",
						"label": "uint256",
						"numberOfBytes": "32"
					}
				}
			},
			"userdoc": {
				"kind": "user",
				"methods": {},
				"version": 1
			}
		}
	}
}